{
  "_format": "hh-sol-artifact-1",
  "contractName": "DSPFactory",
  "sourceName": "contracts/factory/DSPFactory.sol",
  "abi": [
    {
      "inputs": [
        {
          "internalType": "address",
          "name": "cloneFactory",
          "type": "address"
        },
        {
          "internalType": "address",
          "name": "DSPTemplate",
          "type": "address"
        },
        {
          "internalType": "address",
          "name": "defaultMaintainer",
          "type": "address"
        },
        {
          "internalType": "address",
          "name": "defaultMtFeeRateModel",
          "type": "address"
        }
      ],
      "stateMutability": "nonpayable",
      "type": "constructor"
    },
    {
      "anonymous": false,
      "inputs": [
        {
          "indexed": false,
          "internalType": "address",
          "name": "baseToken",
          "type": "address"
        },
        {
          "indexed": false,
          "internalType": "address",
          "name": "quoteToken",
          "type": "address"
        },
        {
          "indexed": false,
          "internalType": "address",
          "name": "creator",
          "type": "address"
        },
        {
          "indexed": false,
          "internalType": "address",
          "name": "DSP",
          "type": "address"
        }
      ],
      "name": "NewDSP",
      "type": "event"
    },
    {
      "anonymous": false,
      "inputs": [
        {
          "indexed": true,
          "internalType": "address",
          "name": "previousOwner",
          "type": "address"
        },
        {
          "indexed": true,
          "internalType": "address",
          "name": "newOwner",
          "type": "address"
        }
      ],
      "name": "OwnershipTransferPrepared",
      "type": "event"
    },
    {
      "anonymous": false,
      "inputs": [
        {
          "indexed": true,
          "internalType": "address",
          "name": "previousOwner",
          "type": "address"
        },
        {
          "indexed": true,
          "internalType": "address",
          "name": "newOwner",
          "type": "address"
        }
      ],
      "name": "OwnershipTransferred",
      "type": "event"
    },
    {
      "anonymous": false,
      "inputs": [
        {
          "indexed": false,
          "internalType": "address",
          "name": "DSP",
          "type": "address"
        }
      ],
      "name": "RemoveDSP",
      "type": "event"
    },
    {
      "inputs": [],
      "name": "_CLONE_FACTORY_",
      "outputs": [
        {
          "internalType": "address",
          "name": "",
          "type": "address"
        }
      ],
      "stateMutability": "view",
      "type": "function"
    },
    {
      "inputs": [],
      "name": "_DEFAULT_MAINTAINER_",
      "outputs": [
        {
          "internalType": "address",
          "name": "",
          "type": "address"
        }
      ],
      "stateMutability": "view",
      "type": "function"
    },
    {
      "inputs": [],
      "name": "_DEFAULT_MT_FEE_RATE_MODEL_",
      "outputs": [
        {
          "internalType": "address",
          "name": "",
          "type": "address"
        }
      ],
      "stateMutability": "view",
      "type": "function"
    },
    {
      "inputs": [],
      "name": "_DSP_TEMPLATE_",
      "outputs": [
        {
          "internalType": "address",
          "name": "",
          "type": "address"
        }
      ],
      "stateMutability": "view",
      "type": "function"
    },
    {
      "inputs": [],
      "name": "_NEW_OWNER_",
      "outputs": [
        {
          "internalType": "address",
          "name": "",
          "type": "address"
        }
      ],
      "stateMutability": "view",
      "type": "function"
    },
    {
      "inputs": [],
      "name": "_OWNER_",
      "outputs": [
        {
          "internalType": "address",
          "name": "",
          "type": "address"
        }
      ],
      "stateMutability": "view",
      "type": "function"
    },
    {
      "inputs": [
        {
          "internalType": "address",
          "name": "",
          "type": "address"
        },
        {
          "internalType": "address",
          "name": "",
          "type": "address"
        },
        {
          "internalType": "uint256",
          "name": "",
          "type": "uint256"
        }
      ],
      "name": "_REGISTRY_",
      "outputs": [
        {
          "internalType": "address",
          "name": "",
          "type": "address"
        }
      ],
      "stateMutability": "view",
      "type": "function"
    },
    {
      "inputs": [
        {
          "internalType": "address",
          "name": "",
          "type": "address"
        },
        {
          "internalType": "uint256",
          "name": "",
          "type": "uint256"
        }
      ],
      "name": "_USER_REGISTRY_",
      "outputs": [
        {
          "internalType": "address",
          "name": "",
          "type": "address"
        }
      ],
      "stateMutability": "view",
      "type": "function"
    },
    {
      "inputs": [
        {
          "internalType": "address",
          "name": "creator",
          "type": "address"
        },
        {
          "internalType": "address",
          "name": "baseToken",
          "type": "address"
        },
        {
          "internalType": "address",
          "name": "quoteToken",
          "type": "address"
        },
        {
          "internalType": "address",
          "name": "pool",
          "type": "address"
        }
      ],
      "name": "addPoolByAdmin",
      "outputs": [],
      "stateMutability": "nonpayable",
      "type": "function"
    },
    {
      "inputs": [],
      "name": "claimOwnership",
      "outputs": [],
      "stateMutability": "nonpayable",
      "type": "function"
    },
    {
      "inputs": [
        {
          "internalType": "address",
          "name": "baseToken",
          "type": "address"
        },
        {
          "internalType": "address",
          "name": "quoteToken",
          "type": "address"
        },
        {
          "internalType": "uint256",
          "name": "lpFeeRate",
          "type": "uint256"
        },
        {
          "internalType": "uint256",
          "name": "i",
          "type": "uint256"
        },
        {
          "internalType": "uint256",
          "name": "k",
          "type": "uint256"
        },
        {
          "internalType": "bool",
          "name": "isOpenTWAP",
          "type": "bool"
        }
      ],
      "name": "createStablePool",
      "outputs": [
        {
          "internalType": "address",
          "name": "newStablePool",
          "type": "address"
        }
      ],
      "stateMutability": "nonpayable",
      "type": "function"
    },
    {
      "inputs": [
        {
          "internalType": "address",
          "name": "baseToken",
          "type": "address"
        },
        {
          "internalType": "address",
          "name": "quoteToken",
          "type": "address"
        }
      ],
      "name": "getPairPool",
      "outputs": [
        {
          "internalType": "address[]",
          "name": "machines",
          "type": "address[]"
        }
      ],
      "stateMutability": "view",
      "type": "function"
    },
    {
      "inputs": [
        {
          "internalType": "address",
          "name": "token0",
          "type": "address"
        },
        {
          "internalType": "address",
          "name": "token1",
          "type": "address"
        }
      ],
      "name": "getPairPoolBidirection",
      "outputs": [
        {
          "internalType": "address[]",
          "name": "baseToken0Machines",
          "type": "address[]"
        },
        {
          "internalType": "address[]",
          "name": "baseToken1Machines",
          "type": "address[]"
        }
      ],
      "stateMutability": "view",
      "type": "function"
    },
    {
      "inputs": [
        {
          "internalType": "address",
          "name": "user",
          "type": "address"
        }
      ],
      "name": "getPairPoolByUser",
      "outputs": [
        {
          "internalType": "address[]",
          "name": "machines",
          "type": "address[]"
        }
      ],
      "stateMutability": "view",
      "type": "function"
    },
    {
      "inputs": [
        {
          "internalType": "address",
          "name": "newOwner",
          "type": "address"
        }
      ],
      "name": "initOwner",
      "outputs": [],
      "stateMutability": "nonpayable",
      "type": "function"
    },
    {
      "inputs": [
        {
          "internalType": "address",
          "name": "creator",
          "type": "address"
        },
        {
          "internalType": "address",
          "name": "baseToken",
          "type": "address"
        },
        {
          "internalType": "address",
          "name": "quoteToken",
          "type": "address"
        },
        {
          "internalType": "address",
          "name": "pool",
          "type": "address"
        }
      ],
      "name": "removePoolByAdmin",
      "outputs": [],
      "stateMutability": "nonpayable",
      "type": "function"
    },
    {
      "inputs": [
        {
          "internalType": "address",
          "name": "newOwner",
          "type": "address"
        }
      ],
      "name": "transferOwnership",
      "outputs": [],
      "stateMutability": "nonpayable",
      "type": "function"
    },
    {
      "inputs": [
        {
          "internalType": "address",
          "name": "_newDSPTemplate",
          "type": "address"
        }
      ],
      "name": "updateDSPTemplate",
      "outputs": [],
      "stateMutability": "nonpayable",
      "type": "function"
    },
    {
      "inputs": [
        {
          "internalType": "address",
          "name": "_newMaintainer",
          "type": "address"
        }
      ],
      "name": "updateDefaultMaintainer",
      "outputs": [],
      "stateMutability": "nonpayable",
      "type": "function"
    }
  ],
  "bytecode": "0x60c06040523480156200001157600080fd5b50604051620012d6380380620012d68339810160408190526200003491620000a1565b6001600160601b0319606094851b8116608052600380546001600160a01b039586166001600160a01b0319918216179091556002805494909516931692909217909255911b1660a05262000101565b80516001600160a01b03811681146200009b57600080fd5b92915050565b60008060008060808587031215620000b7578384fd5b620000c3868662000083565b9350620000d4866020870162000083565b9250620000e5866040870162000083565b9150620000f6866060870162000083565b905092959194509250565b60805160601c60a05160601c6111a1620001356000398061081852806109a65250806108eb5280610cfb52506111a16000f3fe608060405234801561001057600080fd5b50600436106101215760003560e01c80638456db15116100ad578063a58888db11610071578063a58888db14610213578063a6df50ae14610226578063bdeb0a9114610247578063eb774d051461025a578063f2fde38b1461026257610121565b80638456db15146101b25780638c76be35146101ba5780639a539506146101da5780639e988ee3146101ed5780639f1f8ed31461020057610121565b806343274b82116100f457806343274b821461017f5780634e71e0c814610192578063593580681461019a5780636c5ccb9b146101a257806381ab4d0a146101aa57610121565b80630d0092971461012657806316048bc41461013b5780631cdd50941461015957806339d00ef91461016c575b600080fd5b610139610134366004610e2e565b610275565b005b6101436102de565b6040516101509190611018565b60405180910390f35b610139610167366004610e2e565b6102ed565b61013961017a366004610ea5565b610339565b61013961018d366004610ea5565b610416565b610139610779565b610143610807565b610143610816565b61014361083a565b610143610849565b6101cd6101c8366004610e2e565b610858565b60405161015091906110a2565b6101436101e8366004610f40565b6108ce565b6101396101fb366004610e2e565b610abb565b6101cd61020e366004610e6d565b610b07565b610143610221366004610faa565b610b8a565b610239610234366004610e6d565b610bbf565b6040516101509291906110b5565b610143610255366004610f00565b610cb7565b610143610cf9565b610139610270366004610e2e565b610d1d565b600154600160a01b900460ff16156102a85760405162461bcd60e51b815260040161029f9061110a565b60405180910390fd5b6001805460ff60a01b1916600160a01b179055600080546001600160a01b039092166001600160a01b0319909216919091179055565b6000546001600160a01b031681565b6000546001600160a01b031633146103175760405162461bcd60e51b815260040161029f90611130565b600380546001600160a01b0319166001600160a01b0392909216919091179055565b6000546001600160a01b031633146103635760405162461bcd60e51b815260040161029f90611130565b6001600160a01b038084166000908152600460209081526040808320868516845282528083208054600181810183559185528385200180548787166001600160a01b03199182168117909255958a1685526005845282852080549283018155855292909320909201805490931617909155517fbc1083a2c1c5ef31e13fb436953d22b47880cf7db279c2c5666b16083afd6b9d9061040890859085908890869061102c565b60405180910390a150505050565b6000546001600160a01b031633146104405760405162461bcd60e51b815260040161029f90611130565b6001600160a01b0380841660009081526004602090815260408083209386168352928152908290208054835181840281018401909452808452606093928301828280156104b657602002820191906000526020600020905b81546001600160a01b03168152600190910190602001808311610498575b50939450600093505050505b815181101561054957826001600160a01b03168282815181106104e157fe5b60200260200101516001600160a01b03161415610541578160018351038151811061050857fe5b602002602001015182828151811061051c57fe5b60200260200101906001600160a01b031690816001600160a01b031681525050610549565b6001016104c2565b506001600160a01b0380851660009081526004602090815260408083209387168352928152919020825161057f92840190610da2565b506001600160a01b0380851660009081526004602090815260408083209387168352929052208054806105ae57fe5b60008281526020808220830160001990810180546001600160a01b03191690559092019092556001600160a01b03871682526005815260409182902080548351818402810184019094528084526060939283018282801561063857602002820191906000526020600020905b81546001600160a01b0316815260019091019060200180831161061a575b50939450600093505050505b81518110156106cb57836001600160a01b031682828151811061066357fe5b60200260200101516001600160a01b031614156106c3578160018351038151811061068a57fe5b602002602001015182828151811061069e57fe5b60200260200101906001600160a01b031690816001600160a01b0316815250506106cb565b600101610644565b506001600160a01b038616600090815260056020908152604090912082516106f592840190610da2565b506001600160a01b038616600090815260056020526040902080548061071757fe5b600082815260209020810160001990810180546001600160a01b03191690550190556040517f896d6f4e7068e6d194a5b84bf222d513973a0dc5ae9687123d5c61329d4489f290610769908590611018565b60405180910390a1505050505050565b6001546001600160a01b031633146107a35760405162461bcd60e51b815260040161029f906110e3565b600154600080546040516001600160a01b0393841693909116917f8be0079c531659141344cd1fd0a4f28419497f9722a3daafe3b4186f6b6457e091a360018054600080546001600160a01b03199081166001600160a01b03841617909155169055565b6003546001600160a01b031681565b7f000000000000000000000000000000000000000000000000000000000000000081565b6002546001600160a01b031681565b6001546001600160a01b031681565b6001600160a01b0381166000908152600560209081526040918290208054835181840281018401909452808452606093928301828280156108c257602002820191906000526020600020905b81546001600160a01b031681526001909101906020018083116108a4575b50505050509050919050565b6003546040516340925bc760e11b81526000916001600160a01b037f0000000000000000000000000000000000000000000000000000000000000000811692638124b78e92610921921690600401611018565b602060405180830381600087803b15801561093b57600080fd5b505af115801561094f573d6000803e3d6000fd5b505050506040513d601f19601f820116820180604052508101906109739190610e51565b60025460405163281ccb9560e11b81529192506001600160a01b0380841692635039972a926109d49216908b908b908b907f0000000000000000000000000000000000000000000000000000000000000000908c908c908c90600401611057565b600060405180830381600087803b1580156109ee57600080fd5b505af1158015610a02573d6000803e3d6000fd5b5050506001600160a01b0380891660009081526004602090815260408083208b8516845282528083208054600181810183559185528385200180549588166001600160a01b03199687168117909155328086526005855283862080549384018155865293909420018054909416909217909255517fbc1083a2c1c5ef31e13fb436953d22b47880cf7db279c2c5666b16083afd6b9d9250610aa9918a918a9190869061102c565b60405180910390a19695505050505050565b6000546001600160a01b03163314610ae55760405162461bcd60e51b815260040161029f90611130565b600280546001600160a01b0319166001600160a01b0392909216919091179055565b6001600160a01b038083166000908152600460209081526040808320938516835292815290829020805483518184028101840190945280845260609392830182828015610b7d57602002820191906000526020600020905b81546001600160a01b03168152600190910190602001808311610b5f575b5050505050905092915050565b60056020528160005260406000208181548110610ba357fe5b6000918252602090912001546001600160a01b03169150829050565b6001600160a01b0380831660008181526004602081815260408084209587168452948152848320918152848320938352928352908390208154845181850281018501909552808552606094859490918491830182828015610c4957602002820191906000526020600020905b81546001600160a01b03168152600190910190602001808311610c2b575b5050505050915080805480602002602001604051908101604052809291908181526020018280548015610ca557602002820191906000526020600020905b81546001600160a01b03168152600190910190602001808311610c87575b50505050509050915091509250929050565b60046020528260005260406000206020528160005260406000208181548110610cdc57fe5b6000918252602090912001546001600160a01b0316925083915050565b7f000000000000000000000000000000000000000000000000000000000000000081565b6000546001600160a01b03163314610d475760405162461bcd60e51b815260040161029f90611130565b600080546040516001600160a01b03808516939216917fdcf55418cee3220104fef63f979ff3c4097ad240c0c43dcb33ce837748983e6291a3600180546001600160a01b0319166001600160a01b0392909216919091179055565b828054828255906000526020600020908101928215610df7579160200282015b82811115610df757825182546001600160a01b0319166001600160a01b03909116178255602090920191600190910190610dc2565b50610e03929150610e07565b5090565b610e2b91905b80821115610e035780546001600160a01b0319168155600101610e0d565b90565b600060208284031215610e3f578081fd5b8135610e4a81611153565b9392505050565b600060208284031215610e62578081fd5b8151610e4a81611153565b60008060408385031215610e7f578081fd5b8235610e8a81611153565b91506020830135610e9a81611153565b809150509250929050565b60008060008060808587031215610eba578182fd5b8435610ec581611153565b93506020850135610ed581611153565b92506040850135610ee581611153565b91506060850135610ef581611153565b939692955090935050565b600080600060608486031215610f14578283fd5b8335610f1f81611153565b92506020840135610f2f81611153565b929592945050506040919091013590565b60008060008060008060c08789031215610f58578182fd5b8635610f6381611153565b95506020870135610f7381611153565b945060408701359350606087013592506080870135915060a08701358015158114610f9c578182fd5b809150509295509295509295565b60008060408385031215610fbc578182fd5b8235610fc781611153565b946020939093013593505050565b6000815180845260208085019450808401835b8381101561100d5781516001600160a01b031687529582019590820190600101610fe8565b509495945050505050565b6001600160a01b0391909116815260200190565b6001600160a01b03948516815292841660208401529083166040830152909116606082015260800190565b6001600160a01b0398891681529688166020880152948716604087015260608601939093529416608084015260a083019390935260c082019290925290151560e08201526101000190565b600060208252610e4a6020830184610fd5565b6000604082526110c86040830185610fd5565b82810360208401526110da8185610fd5565b95945050505050565b6020808252600d908201526c494e56414c49445f434c41494d60981b604082015260600190565b6020808252600c908201526b17d25392551250531256915160a21b604082015260600190565b6020808252600990820152682727aa2fa7aba722a960b91b604082015260600190565b6001600160a01b038116811461116857600080fd5b5056fea2646970667358221220c4aa392c4d2d06a4bb1ba0d2dae4d9f175ab3a9fe73f31f062822e80cb69161864736f6c63430006090033",
  "linkReferences": {},
  "deployedLinkReferences": {}
}