{
  "_format": "hh-sol-artifact-1",
  "contractName": "ERC20Mine",
  "sourceName": "contracts/mining/ERC20Mine.sol",
  "abi": [
    {
      "anonymous": false,
      "inputs": [
        {
          "indexed": true,
          "internalType": "uint256",
          "name": "i",
          "type": "uint256"
        },
        {
          "indexed": true,
          "internalType": "address",
          "name": "user",
          "type": "address"
        },
        {
          "indexed": false,
          "internalType": "uint256",
          "name": "reward",
          "type": "uint256"
        }
      ],
      "name": "Claim",
      "type": "event"
    },
    {
      "anonymous": false,
      "inputs": [
        {
          "indexed": true,
          "internalType": "address",
          "name": "user",
          "type": "address"
        },
        {
          "indexed": false,
          "internalType": "uint256",
          "name": "stakeId",
          "type": "uint256"
        },
        {
          "indexed": false,
          "internalType": "uint256",
          "name": "amount",
          "type": "uint256"
        }
      ],
      "name": "Deposit",
      "type": "event"
    },
    {
      "anonymous": false,
      "inputs": [
        {
          "indexed": true,
          "internalType": "uint256",
          "name": "i",
          "type": "uint256"
        },
        {
          "indexed": false,
          "internalType": "address",
          "name": "rewardToken",
          "type": "address"
        }
      ],
      "name": "NewRewardToken",
      "type": "event"
    },
    {
      "anonymous": false,
      "inputs": [
        {
          "indexed": true,
          "internalType": "address",
          "name": "previousOwner",
          "type": "address"
        },
        {
          "indexed": true,
          "internalType": "address",
          "name": "newOwner",
          "type": "address"
        }
      ],
      "name": "OwnershipTransferPrepared",
      "type": "event"
    },
    {
      "anonymous": false,
      "inputs": [
        {
          "indexed": true,
          "internalType": "address",
          "name": "previousOwner",
          "type": "address"
        },
        {
          "indexed": true,
          "internalType": "address",
          "name": "newOwner",
          "type": "address"
        }
      ],
      "name": "OwnershipTransferred",
      "type": "event"
    },
    {
      "anonymous": false,
      "inputs": [
        {
          "indexed": false,
          "internalType": "address",
          "name": "rewardToken",
          "type": "address"
        }
      ],
      "name": "RemoveRewardToken",
      "type": "event"
    },
    {
      "anonymous": false,
      "inputs": [
        {
          "indexed": true,
          "internalType": "uint256",
          "name": "i",
          "type": "uint256"
        },
        {
          "indexed": false,
          "internalType": "uint256",
          "name": "endTime",
          "type": "uint256"
        }
      ],
      "name": "UpdateEndTime",
      "type": "event"
    },
    {
      "anonymous": false,
      "inputs": [
        {
          "indexed": true,
          "internalType": "uint256",
          "name": "i",
          "type": "uint256"
        },
        {
          "indexed": false,
          "internalType": "uint256",
          "name": "rewardPerSecond",
          "type": "uint256"
        }
      ],
      "name": "UpdateReward",
      "type": "event"
    },
    {
      "anonymous": false,
      "inputs": [
        {
          "indexed": true,
          "internalType": "address",
          "name": "user",
          "type": "address"
        },
        {
          "indexed": false,
          "internalType": "uint256",
          "name": "stakeId",
          "type": "uint256"
        },
        {
          "indexed": false,
          "internalType": "uint256",
          "name": "amount",
          "type": "uint256"
        }
      ],
      "name": "Withdraw",
      "type": "event"
    },
    {
      "anonymous": false,
      "inputs": [
        {
          "indexed": false,
          "internalType": "address",
          "name": "owner",
          "type": "address"
        },
        {
          "indexed": false,
          "internalType": "uint256",
          "name": "i",
          "type": "uint256"
        }
      ],
      "name": "WithdrawLeftOver",
      "type": "event"
    },
    {
      "inputs": [],
      "name": "_LOCK_DURATION_",
      "outputs": [
        {
          "internalType": "uint256",
          "name": "",
          "type": "uint256"
        }
      ],
      "stateMutability": "view",
      "type": "function"
    },
    {
      "inputs": [],
      "name": "_NEW_OWNER_",
      "outputs": [
        {
          "internalType": "address",
          "name": "",
          "type": "address"
        }
      ],
      "stateMutability": "view",
      "type": "function"
    },
    {
      "inputs": [],
      "name": "_OWNER_",
      "outputs": [
        {
          "internalType": "address",
          "name": "",
          "type": "address"
        }
      ],
      "stateMutability": "view",
      "type": "function"
    },
    {
      "inputs": [],
      "name": "_TOKEN_",
      "outputs": [
        {
          "internalType": "address",
          "name": "",
          "type": "address"
        }
      ],
      "stateMutability": "view",
      "type": "function"
    },
    {
      "inputs": [
        {
          "internalType": "address",
          "name": "rewardToken",
          "type": "address"
        },
        {
          "internalType": "uint256",
          "name": "rewardPerSecond",
          "type": "uint256"
        },
        {
          "internalType": "uint256",
          "name": "startTime",
          "type": "uint256"
        },
        {
          "internalType": "uint256",
          "name": "endTime",
          "type": "uint256"
        }
      ],
      "name": "addRewardToken",
      "outputs": [],
      "stateMutability": "nonpayable",
      "type": "function"
    },
    {
      "inputs": [
        {
          "internalType": "address",
          "name": "user",
          "type": "address"
        }
      ],
      "name": "balanceOf",
      "outputs": [
        {
          "internalType": "uint256",
          "name": "",
          "type": "uint256"
        }
      ],
      "stateMutability": "view",
      "type": "function"
    },
    {
      "inputs": [],
      "name": "claimAllRewards",
      "outputs": [],
      "stateMutability": "nonpayable",
      "type": "function"
    },
    {
      "inputs": [],
      "name": "claimOwnership",
      "outputs": [],
      "stateMutability": "nonpayable",
      "type": "function"
    },
    {
      "inputs": [
        {
          "internalType": "uint256",
          "name": "i",
          "type": "uint256"
        }
      ],
      "name": "claimReward",
      "outputs": [],
      "stateMutability": "nonpayable",
      "type": "function"
    },
    {
      "inputs": [
        {
          "internalType": "uint256",
          "name": "amount",
          "type": "uint256"
        }
      ],
      "name": "deposit",
      "outputs": [],
      "stateMutability": "nonpayable",
      "type": "function"
    },
    {
      "inputs": [
        {
          "internalType": "address",
          "name": "newOwner",
          "type": "address"
        }
      ],
      "name": "directTransferOwnership",
      "outputs": [],
      "stateMutability": "nonpayable",
      "type": "function"
    },
    {
      "inputs": [
        {
          "internalType": "address",
          "name": "rewardToken",
          "type": "address"
        }
      ],
      "name": "getIdByRewardToken",
      "outputs": [
        {
          "internalType": "uint256",
          "name": "",
          "type": "uint256"
        }
      ],
      "stateMutability": "view",
      "type": "function"
    },
    {
      "inputs": [
        {
          "internalType": "address",
          "name": "user",
          "type": "address"
        },
        {
          "internalType": "uint256",
          "name": "i",
          "type": "uint256"
        }
      ],
      "name": "getPendingReward",
      "outputs": [
        {
          "internalType": "uint256",
          "name": "",
          "type": "uint256"
        }
      ],
      "stateMutability": "view",
      "type": "function"
    },
    {
      "inputs": [
        {
          "internalType": "address",
          "name": "user",
          "type": "address"
        },
        {
          "internalType": "address",
          "name": "rewardToken",
          "type": "address"
        }
      ],
      "name": "getPendingRewardByToken",
      "outputs": [
        {
          "internalType": "uint256",
          "name": "",
          "type": "uint256"
        }
      ],
      "stateMutability": "view",
      "type": "function"
    },
    {
      "inputs": [],
      "name": "getRewardNum",
      "outputs": [
        {
          "internalType": "uint256",
          "name": "",
          "type": "uint256"
        }
      ],
      "stateMutability": "view",
      "type": "function"
    },
    {
      "inputs": [
        {
          "internalType": "uint256",
          "name": "i",
          "type": "uint256"
        }
      ],
      "name": "getRewardTokenById",
      "outputs": [
        {
          "internalType": "address",
          "name": "",
          "type": "address"
        }
      ],
      "stateMutability": "view",
      "type": "function"
    },
    {
      "inputs": [
        {
          "internalType": "address",
          "name": "rewardToken",
          "type": "address"
        }
      ],
      "name": "getVaultByRewardToken",
      "outputs": [
        {
          "internalType": "address",
          "name": "",
          "type": "address"
        }
      ],
      "stateMutability": "view",
      "type": "function"
    },
    {
      "inputs": [
        {
          "internalType": "address",
          "name": "rewardToken",
          "type": "address"
        }
      ],
      "name": "getVaultDebtByRewardToken",
      "outputs": [
        {
          "internalType": "uint256",
          "name": "",
          "type": "uint256"
        }
      ],
      "stateMutability": "view",
      "type": "function"
    },
    {
      "inputs": [
        {
          "internalType": "address",
          "name": "owner",
          "type": "address"
        },
        {
          "internalType": "address",
          "name": "token",
          "type": "address"
        },
        {
          "internalType": "uint256",
          "name": "lockDuration",
          "type": "uint256"
        }
      ],
      "name": "init",
      "outputs": [],
      "stateMutability": "nonpayable",
      "type": "function"
    },
    {
      "inputs": [
        {
          "internalType": "address",
          "name": "newOwner",
          "type": "address"
        }
      ],
      "name": "initOwner",
      "outputs": [],
      "stateMutability": "nonpayable",
      "type": "function"
    },
    {
      "inputs": [
        {
          "internalType": "uint256",
          "name": "",
          "type": "uint256"
        }
      ],
      "name": "rewardTokenInfos",
      "outputs": [
        {
          "internalType": "address",
          "name": "rewardToken",
          "type": "address"
        },
        {
          "internalType": "uint256",
          "name": "startTime",
          "type": "uint256"
        },
        {
          "internalType": "uint256",
          "name": "endTime",
          "type": "uint256"
        },
        {
          "internalType": "address",
          "name": "rewardVault",
          "type": "address"
        },
        {
          "internalType": "uint256",
          "name": "rewardPerSecond",
          "type": "uint256"
        },
        {
          "internalType": "uint256",
          "name": "accRewardPerShare",
          "type": "uint256"
        },
        {
          "internalType": "uint256",
          "name": "lastRewardTime",
          "type": "uint256"
        },
        {
          "internalType": "uint256",
          "name": "workThroughReward",
          "type": "uint256"
        },
        {
          "internalType": "uint256",
          "name": "lastFlagTime",
          "type": "uint256"
        }
      ],
      "stateMutability": "view",
      "type": "function"
    },
    {
      "inputs": [
        {
          "internalType": "uint256",
          "name": "i",
          "type": "uint256"
        },
        {
          "internalType": "uint256",
          "name": "newEndTime",
          "type": "uint256"
        }
      ],
      "name": "setEndTime",
      "outputs": [],
      "stateMutability": "nonpayable",
      "type": "function"
    },
    {
      "inputs": [
        {
          "internalType": "uint256",
          "name": "i",
          "type": "uint256"
        },
        {
          "internalType": "uint256",
          "name": "newRewardPerSecond",
          "type": "uint256"
        }
      ],
      "name": "setReward",
      "outputs": [],
      "stateMutability": "nonpayable",
      "type": "function"
    },
    {
      "inputs": [
        {
          "internalType": "uint256",
          "name": "",
          "type": "uint256"
        }
      ],
      "name": "stakerIds",
      "outputs": [
        {
          "internalType": "address",
          "name": "staker",
          "type": "address"
        },
        {
          "internalType": "uint256",
          "name": "stakeTime",
          "type": "uint256"
        },
        {
          "internalType": "uint256",
          "name": "stakeAmount",
          "type": "uint256"
        }
      ],
      "stateMutability": "view",
      "type": "function"
    },
    {
      "inputs": [],
      "name": "stakerInfoLength",
      "outputs": [
        {
          "internalType": "uint256",
          "name": "",
          "type": "uint256"
        }
      ],
      "stateMutability": "view",
      "type": "function"
    },
    {
      "inputs": [
        {
          "internalType": "uint256",
          "name": "",
          "type": "uint256"
        }
      ],
      "name": "stakerWithdrawn",
      "outputs": [
        {
          "internalType": "bool",
          "name": "",
          "type": "bool"
        }
      ],
      "stateMutability": "view",
      "type": "function"
    },
    {
      "inputs": [],
      "name": "totalSupply",
      "outputs": [
        {
          "internalType": "uint256",
          "name": "",
          "type": "uint256"
        }
      ],
      "stateMutability": "view",
      "type": "function"
    },
    {
      "inputs": [
        {
          "internalType": "address",
          "name": "newOwner",
          "type": "address"
        }
      ],
      "name": "transferOwnership",
      "outputs": [],
      "stateMutability": "nonpayable",
      "type": "function"
    },
    {
      "inputs": [
        {
          "internalType": "address",
          "name": "",
          "type": "address"
        },
        {
          "internalType": "uint256",
          "name": "",
          "type": "uint256"
        }
      ],
      "name": "userStakeInfos",
      "outputs": [
        {
          "internalType": "address",
          "name": "staker",
          "type": "address"
        },
        {
          "internalType": "uint256",
          "name": "stakeTime",
          "type": "uint256"
        },
        {
          "internalType": "uint256",
          "name": "stakeAmount",
          "type": "uint256"
        }
      ],
      "stateMutability": "view",
      "type": "function"
    },
    {
      "inputs": [
        {
          "internalType": "uint256",
          "name": "stakeId",
          "type": "uint256"
        }
      ],
      "name": "withdraw",
      "outputs": [],
      "stateMutability": "nonpayable",
      "type": "function"
    },
    {
      "inputs": [
        {
          "internalType": "uint256",
          "name": "i",
          "type": "uint256"
        },
        {
          "internalType": "uint256",
          "name": "amount",
          "type": "uint256"
        }
      ],
      "name": "withdrawLeftOver",
      "outputs": [],
      "stateMutability": "nonpayable",
      "type": "function"
    }
  ],
  "bytecode": "0x6080604052600060075534801561001557600080fd5b5061326a806100256000396000f3fe608060405234801561001057600080fd5b50600436106101e45760003560e01c806386863ec61161010f578063b6b55f25116100a2578063d895fff111610071578063d895fff1146103dd578063e513eb15146103f0578063eb51eee814610403578063f2fde38b14610416576101e4565b8063b6b55f251461039c578063bdbf2657146103af578063bdd37dc6146103c2578063cf08be2a146103d5576101e4565b8063a47bd496116100de578063a47bd49614610350578063a7c3e4e514610363578063abfbac4b14610376578063ae169a5014610389576101e4565b806386863ec61461030f57806392e3200b14610322578063999ffd971461032a578063a2a54bee1461033d576101e4565b80632e1a7d4d116101875780635ae9a549116101565780635ae9a549146102d9578063697d86a2146102e157806370a08231146102f45780638456db1514610307576101e4565b80632e1a7d4d1461027c5780633d45747f1461028f5780634e71e0c8146102b1578063519e4ac7146102b9576101e4565b80630d009297116101c35780630d0092971461022457806316048bc41461023757806318160ddd1461024c5780631c00a0de14610254576101e4565b8062b68f08146101e95780630a6180c8146102125780630b83a7271461021a575b600080fd5b6101fc6101f736600461226f565b610429565b60405161020991906129fd565b60405180910390f35b6101fc610441565b610222610447565b005b610222610232366004612254565b61046a565b61023f6104d8565b60405161020991906123f1565b6101fc6104ec565b610267610262366004612367565b6104f3565b60405161020999989796959493929190612463565b61022261028a366004612367565b610558565b6102a261029d3660046122e3565b610725565b60405161020993929190612442565b61022261076e565b6102cc6102c7366004612367565b61080d565b60405161020991906124b6565b6101fc610822565b61023f6102ef366004612367565b610828565b6101fc610302366004612254565b6108f0565b61023f61090b565b61022261031d3660046122a3565b61091a565b61023f61094a565b6101fc6103383660046122e3565b610959565b6101fc61034b366004612254565b610a2d565b61022261035e366004612397565b610a98565b61022261037136600461230d565b610cab565b610222610384366004612397565b610fcb565b610222610397366004612367565b6111c8565b6102226103aa366004612367565b6112ed565b6101fc6103bd366004612254565b611608565b6102226103d0366004612254565b6117d4565b6101fc61188f565b6102226103eb366004612397565b611895565b61023f6103fe366004612254565b611ad7565b6102a2610411366004612367565b611b54565b610222610424366004612254565b611b7f565b60006104388361033884610a2d565b90505b92915050565b60065481565b60025460005b818110156104665761045e816111c8565b60010161044d565b5050565b600154600160a01b900460ff161561049d5760405162461bcd60e51b815260040161049490612645565b60405180910390fd5b6001805460ff60a01b1916600160a01b179055600080546001600160a01b0390921661010002610100600160a81b0319909216919091179055565b60005461010090046001600160a01b031681565b6003545b90565b6002818154811061050057fe5b60009182526020909120600b90910201805460018201546002830154600384015460048501546005860154600687015460078801546008909801546001600160a01b0397881699509597949690931694919390929189565b60005460ff161561057b5760405162461bcd60e51b8152600401610494906124e8565b6000805460ff191660011790556105906120f4565b50600081815260086020908152604091829020825160608101845281546001600160a01b03168082526001830154938201939093526002909101549281019290925233146105f05760405162461bcd60e51b8152600401610494906125ac565b42600654826020015101106106175760405162461bcd60e51b815260040161049490612604565b60008281526009602052604090205460ff16156106465760405162461bcd60e51b815260040161049490612763565b61064f33611c0e565b60408101516003546106669163ffffffff611c2e16565b6003556040808201513360009081526004602052919091205461068e9163ffffffff611c2e16565b336000818152600460205260409081902092909255908201516005546106bf926001600160a01b0390911691611c56565b60008281526009602052604090819020805460ff1916600117905581810151905133917ff279e6a1f5e320cca91135676d9cb6e44ca8a08c0b88342bcdb1144f6511b5689161070f918691612a06565b60405180910390a250506000805460ff19169055565b600a602052816000526040600020818154811061073e57fe5b60009182526020909120600390910201805460018201546002909201546001600160a01b03909116935090915083565b6001546001600160a01b031633146107985760405162461bcd60e51b8152600401610494906124c1565b600154600080546040516001600160a01b0393841693610100909204909116917f8be0079c531659141344cd1fd0a4f28419497f9722a3daafe3b4186f6b6457e091a36001805460008054610100600160a81b0319166101006001600160a01b038416021790556001600160a01b0319169055565b60096020526000908152604090205460ff1681565b60025490565b600254600090821061084c5760405162461bcd60e51b815260040161049490612839565b61085461211e565b6002838154811061086157fe5b60009182526020918290206040805161012081018252600b90930290910180546001600160a01b039081168085526001830154958501959095526002820154928401929092526003810154909116606083015260048101546080830152600581015460a0830152600681015460c0830152600781015460e083015260080154610100909101529150505b919050565b6001600160a01b031660009081526004602052604090205490565b6001546001600160a01b031681565b6109238361046a565b600580546001600160a01b0319166001600160a01b03939093169290921790915560065550565b6005546001600160a01b031681565b600254600090821061097d5760405162461bcd60e51b815260040161049490612839565b60006002838154811061098c57fe5b90600052602060002090600b02019050600081600501549050428260060154146109bc576109b984611cac565b90505b6001600160a01b0385166000908152600a83016020526040902054610a2490610a186109e7886108f0565b6001600160a01b0389166000908152600987016020526040902054610a1390869063ffffffff611c2e16565b611d9e565b9063ffffffff611dc816565b95945050505050565b600254600090815b81811015610a7f5760028181548110610a4a57fe5b60009182526020909120600b90910201546001600160a01b0385811691161415610a775791506108eb9050565b600101610a35565b5060405162461bcd60e51b81526004016104949061296c565b60005461010090046001600160a01b03163314610ac75760405162461bcd60e51b81526004016104949061286e565b6002548210610ae85760405162461bcd60e51b815260040161049490612839565b610af3600083611ded565b600060028381548110610b0257fe5b90600052602060002090600b0201905080600201544210610b355760405162461bcd60e51b8152600401610494906129c6565b610b74610b638260040154610b57846008015442611c2e90919063ffffffff16565b9063ffffffff611e7b16565b60078301549063ffffffff611dc816565b600782015560048082018390554260088301556003820154604080516335d40bbd60e21b815290516000936001600160a01b039093169263d7502ef492808201926020929091829003018186803b158015610bce57600080fd5b505afa158015610be2573d6000803e3d6000fd5b505050506040513d601f19601f82011682018060405250810190610c06919061237f565b90506000610c21428460020154611c2e90919063ffffffff16565b90506000610c49610c38838763ffffffff611e7b16565b60078601549063ffffffff611dc816565b905080831015610c6b5760405162461bcd60e51b81526004016104949061266b565b857fbcabeac7f89430597dc942c3264f28fd08010c3b2e19ecf95c6e690f9820b2a486604051610c9b91906129fd565b60405180910390a2505050505050565b60005461010090046001600160a01b03163314610cda5760405162461bcd60e51b81526004016104949061286e565b6001600160a01b038416610d005760405162461bcd60e51b815260040161049490612935565b428211610d1f5760405162461bcd60e51b815260040161049490612804565b818111610d3e5760405162461bcd60e51b81526004016104949061272c565b60025460005b81811015610d9d5760028181548110610d5957fe5b60009182526020909120600b90910201546001600160a01b0387811691161415610d955760405162461bcd60e51b81526004016104949061250b565b600101610d44565b5060028054600181018255600091909152600b027f405787fa12a823e0f2b7631cc41b3ba8828b3321ca811111fa75cd3aa3bb5ace810180546001600160a01b0388166001600160a01b03199091161781557f405787fa12a823e0f2b7631cc41b3ba8828b3321ca811111fa75cd3aa3bb5acf82018590557f405787fa12a823e0f2b7631cc41b3ba8828b3321ca811111fa75cd3aa3bb5ad682018590557f405787fa12a823e0f2b7631cc41b3ba8828b3321ca811111fa75cd3aa3bb5ad082018490557f405787fa12a823e0f2b7631cc41b3ba8828b3321ca811111fa75cd3aa3bb5ad29091018590556040518690610e969061217c565b610ea091906123f1565b604051809103906000f080158015610ebc573d6000803e3d6000fd5b506003820180546001600160a01b0319166001600160a01b03929092169190911790556000610efb610eee8587611c2e565b879063ffffffff611e7b16565b6003830154909150610f20906001600160a01b0389811691168363ffffffff611c5616565b8160030160009054906101000a90046001600160a01b03166001600160a01b031663ca1896ab6040518163ffffffff1660e01b8152600401600060405180830381600087803b158015610f7257600080fd5b505af1158015610f86573d6000803e3d6000fd5b50505050827ff164ae823f4542cc5c8fce1671fabc0d21159bf75d4fc92d697be0f1e748852688604051610fba91906123f1565b60405180910390a250505050505050565b60005461010090046001600160a01b03163314610ffa5760405162461bcd60e51b81526004016104949061286e565b600254821061101b5760405162461bcd60e51b815260040161049490612839565b611026600083611ded565b60006002838154811061103557fe5b90600052602060002090600b0201905060008160030160009054906101000a90046001600160a01b03166001600160a01b031663d7502ef46040518163ffffffff1660e01b815260040160206040518083038186803b15801561109757600080fd5b505afa1580156110ab573d6000803e3d6000fd5b505050506040513d601f19601f820116820180604052508101906110cf919061237f565b905060006110ea836008015485611c2e90919063ffffffff16565b90506000611108610c38856004015484611e7b90919063ffffffff16565b90508083101561112a5760405162461bcd60e51b81526004016104949061266b565b8442106111495760405162461bcd60e51b8152600401610494906126a2565b8360010154421161116c5760405162461bcd60e51b8152600401610494906126fc565b8360020154421061118f5760405162461bcd60e51b8152600401610494906129c6565b848460020181905550857f17d3c533548aa281cd4b573e7659f1b3269b772da8e4fc6425a0cf9e662c43e986604051610c9b91906129fd565b60025481106111e95760405162461bcd60e51b815260040161049490612839565b6111f33382611ded565b60006002828154811061120257fe5b60009182526020808320338452600a600b90930201918201905260409091205490915080156112e857336000818152600a8401602052604080822091909155600384015490516310b3879160e11b81526001600160a01b03909116916321670f229161127391908590600401612405565b600060405180830381600087803b15801561128d57600080fd5b505af11580156112a1573d6000803e3d6000fd5b50505050336001600160a01b0316837f3ed1528b0fdc7c5207c1bf935e34a667e13656b9ed165260c522be0bc544f303836040516112df91906129fd565b60405180910390a35b505050565b60005460ff16156113105760405162461bcd60e51b8152600401610494906124e8565b6000805460ff191660011790558061133a5760405162461bcd60e51b8152600401610494906127cf565b61134333611c0e565b6005546040516370a0823160e01b81526000916001600160a01b0316906370a08231906113749030906004016123f1565b60206040518083038186803b15801561138c57600080fd5b505afa1580156113a0573d6000803e3d6000fd5b505050506040513d601f19601f820116820180604052508101906113c4919061237f565b6005549091506113e5906001600160a01b031633308563ffffffff611eb516565b6005546040516370a0823160e01b81526000916114789184916001600160a01b0316906370a082319061141c9030906004016123f1565b60206040518083038186803b15801561143457600080fd5b505afa158015611448573d6000803e3d6000fd5b505050506040513d601f19601f8201168201806040525081019061146c919061237f565b9063ffffffff611c2e16565b60035490915061148e908263ffffffff611dc816565b600355336000908152600460205260409020546114b1908263ffffffff611dc816565b336000908152600460205260409020556114c96120f4565b5060408051606081018252338082524260208084019182528385018681526000848152600a8352958620805460018082018355828952938820875160039092020180546001600160a01b0319166001600160a01b03909216919091178155935192840192909255516002909201919091559252815490919061154e9082908190612189565b5060075461156390600163ffffffff611dc816565b60078181556000918252600960209081526040808420805460ff19169055825484526008825292839020855181546001600160a01b0319166001600160a01b039091161781559085015160018201558483015160029091015554905133917f90890809c654f11d6e72a28fa60149770a0d11ec6c92319d6ceb2bb0a4ea1a15916115ef91908790612a06565b60405180910390a250506000805460ff19169055505050565b600254600090815b81811015610a7f576002818154811061162557fe5b60009182526020909120600b90910201546001600160a01b03858116911614156117cc5760006002828154811061165857fe5b60009182526020918290206003600b909202010154604080516335d40bbd60e21b815290516001600160a01b039092169263d7502ef492600480840193829003018186803b1580156116a957600080fd5b505afa1580156116bd573d6000803e3d6000fd5b505050506040513d601f19601f820116820180604052508101906116e1919061237f565b90506000611734600284815481106116f557fe5b90600052602060002090600b0201600801546002858154811061171457fe5b90600052602060002090600b020160020154611c2e90919063ffffffff16565b9050600061179961176c6002868154811061174b57fe5b90600052602060002090600b02016004015484611e7b90919063ffffffff16565b6002868154811061177957fe5b90600052602060002090600b020160070154611dc890919063ffffffff16565b90508083106117b0576000955050505050506108eb565b6117c0818463ffffffff611c2e16565b955050505050506108eb565b600101611610565b60005461010090046001600160a01b031633146118035760405162461bcd60e51b81526004016104949061286e565b6001600160a01b0381166118295760405162461bcd60e51b815260040161049490612575565b600080546040516001600160a01b038085169361010090930416917f8be0079c531659141344cd1fd0a4f28419497f9722a3daafe3b4186f6b6457e091a3600080546001600160a01b0390921661010002610100600160a81b0319909216919091179055565b60075481565b60005461010090046001600160a01b031633146118c45760405162461bcd60e51b81526004016104949061286e565b60025482106118e55760405162461bcd60e51b815260040161049490612839565b6000600283815481106118f457fe5b90600052602060002090600b02019050806002015442116119275760405162461bcd60e51b81526004016104949061279a565b600061194482600801548360020154611c2e90919063ffffffff16565b90506000611973611962846004015484611e7b90919063ffffffff16565b60078501549063ffffffff611dc816565b905060008360030160009054906101000a90046001600160a01b03166001600160a01b031663d7502ef46040518163ffffffff1660e01b815260040160206040518083038186803b1580156119c757600080fd5b505afa1580156119db573d6000803e3d6000fd5b505050506040513d601f19601f820116820180604052508101906119ff919061237f565b9050611a11818363ffffffff611c2e16565b851115611a305760405162461bcd60e51b8152600401610494906128b4565b6003840154604051633550d7eb60e11b81526001600160a01b0390911690636aa1afd690611a649033908990600401612405565b600060405180830381600087803b158015611a7e57600080fd5b505af1158015611a92573d6000803e3d6000fd5b505050507f6b769350ff403947f8ca4f54b35b9747d58b4b2676c957c460c1d5e4ba64342e3387604051611ac7929190612405565b60405180910390a1505050505050565b600254600090815b81811015610a7f5760028181548110611af457fe5b60009182526020909120600b90910201546001600160a01b0385811691161415611b4c5760028181548110611b2557fe5b600091825260209091206003600b9092020101546001600160a01b031692506108eb915050565b600101611adf565b6008602052600090815260409020805460018201546002909201546001600160a01b03909116919083565b60005461010090046001600160a01b03163314611bae5760405162461bcd60e51b81526004016104949061286e565b600080546040516001600160a01b038085169361010090930416917fdcf55418cee3220104fef63f979ff3c4097ad240c0c43dcb33ce837748983e6291a3600180546001600160a01b0319166001600160a01b0392909216919091179055565b60025460005b818110156112e857611c268382611ded565b600101611c14565b600082821115611c505760405162461bcd60e51b8152600401610494906126d9565b50900390565b6112e88363a9059cbb60e01b8484604051602401611c75929190612405565b60408051601f198184030181529190526020810180516001600160e01b03166001600160e01b031990931692909217909152611edc565b6000611cb661211e565b60028381548110611cc357fe5b60009182526020918290206040805161012081018252600b90930290910180546001600160a01b0390811684526001820154948401949094526002810154918301919091526003810154909216606082015260048201546080820152600582015460a0820152600682015460c0820152600782015460e08201526008909101546101008201529050611d536104ec565b611d625760a0015190506108eb565b611d97611d86611d798360800151610b5787611f93565b611d816104ec565b6120a0565b60a08301519063ffffffff611dc816565b9392505050565b6000670de0b6b3a7640000611db9848463ffffffff611e7b16565b81611dc057fe5b049392505050565b6000828201838110156104385760405162461bcd60e51b815260040161049490612891565b600060028281548110611dfc57fe5b90600052602060002090600b0201905042816006015414611e2c57611e2082611cac565b60058201554260068201555b6001600160a01b038316156112e857611e458383610959565b6001600160a01b0384166000908152600a8301602090815260408083209390935560058401546009850190915291902055505050565b600082611e8a5750600061043b565b82820282848281611e9757fe5b04146104385760405162461bcd60e51b8152600401610494906129a3565b611ed6846323b872dd60e01b858585604051602401611c759392919061241e565b50505050565b60006060836001600160a01b031683604051611ef891906123b8565b6000604051808303816000865af19150503d8060008114611f35576040519150601f19603f3d011682016040523d82523d6000602084013e611f3a565b606091505b509150915081611f5c5760405162461bcd60e51b815260040161049490612540565b805115611ed65780806020019051810190611f779190612347565b611ed65760405162461bcd60e51b8152600401610494906128eb565b6000611f9d61211e565b60028381548110611faa57fe5b60009182526020918290206040805161012081018252600b90930290910180546001600160a01b03908116845260018201549484018590526002820154928401929092526003810154909116606083015260048101546080830152600581015460a0830152600681015460c0830152600781015460e0830152600801546101008201529150421080612043575080604001518160c00151115b156120525760009150506108eb565b600081602001518260c001511061206d578160c00151612073565b81602001515b9050600042836040015110612088574261208e565b82604001515b9050610a24818363ffffffff611c2e16565b6000610438826120be85670de0b6b3a764000063ffffffff611e7b16565b9063ffffffff6120ca16565b60008082116120eb5760405162461bcd60e51b8152600401610494906125dc565b818381611dc057fe5b604051806060016040528060006001600160a01b0316815260200160008152602001600081525090565b60405180610120016040528060006001600160a01b03168152602001600081526020016000815260200160006001600160a01b0316815260200160008152602001600081526020016000815260200160008152602001600081525090565b61080880612a2d83390190565b8280548282559060005260206000209060030281019282156121fb5760005260206000209160030282015b828111156121fb57825482546001600160a01b0319166001600160a01b039091161782556001808401549083015560028084015490830155600392830192909101906121b4565b5061220792915061220b565b5090565b6104f091905b808211156122075780546001600160a01b03191681556000600182018190556002820155600301612211565b80356001600160a01b038116811461043b57600080fd5b600060208284031215612265578081fd5b610438838361223d565b60008060408385031215612281578081fd5b61228b848461223d565b915061229a846020850161223d565b90509250929050565b6000806000606084860312156122b7578081fd5b83356122c281612a14565b925060208401356122d281612a14565b929592945050506040919091013590565b600080604083850312156122f5578182fd5b6122ff848461223d565b946020939093013593505050565b60008060008060808587031215612322578081fd5b843561232d81612a14565b966020860135965060408601359560600135945092505050565b600060208284031215612358578081fd5b81518015158114610438578182fd5b600060208284031215612378578081fd5b5035919050565b600060208284031215612390578081fd5b5051919050565b600080604083850312156123a9578182fd5b50508035926020909101359150565b60008251815b818110156123d857602081860181015185830152016123be565b818111156123e65782828501525b509190910192915050565b6001600160a01b0391909116815260200190565b6001600160a01b03929092168252602082015260400190565b6001600160a01b039384168152919092166020820152604081019190915260600190565b6001600160a01b039390931683526020830191909152604082015260600190565b6001600160a01b03998a16815260208101989098526040880196909652939096166060860152608085019190915260a084015260c083019390935260e08201929092526101008101919091526101200190565b901515815260200190565b6020808252600d908201526c494e56414c49445f434c41494d60981b604082015260600190565b60208082526009908201526814915153951490539560ba1b604082015260600190565b6020808252818101527f576f726c6465734d696e653a20544f4b454e5f414c52454144595f4144444544604082015260600190565b6020808252818101527f5361666545524332303a206c6f772d6c6576656c2063616c6c206661696c6564604082015260600190565b60208082526019908201527f576f726c6465734d696e653a205a45524f5f4144445245535300000000000000604082015260600190565b6020808252601690820152752bb7b9363232b9a6b4b7329d102727afa9aa20a5a2a960511b604082015260600190565b6020808252600e908201526d2224ab24a224a723afa2a92927a960911b604082015260600190565b60208082526021908201527f576f726c6465734d696e653a204c4f434b5f54494d455f4e4f545f50415353456040820152601160fa1b606082015260800190565b6020808252600c908201526b17d25392551250531256915160a21b604082015260600190565b6020808252601e908201527f576f726c6465734d696e653a205245574152445f4e4f545f454e4f5547480000604082015260600190565b6020808252601e908201527f576f726c6465734d696e653a20454e445f424c4f434b5f494e56414c49440000604082015260600190565b60208082526009908201526829aaa12fa2a92927a960b91b604082015260600190565b60208082526016908201527515dbdc9b19195cd35a5b994e881393d517d4d510549560521b604082015260600190565b6020808252601d908201527f576f726c6465734d696e653a204455524154494f4e5f494e56414c4944000000604082015260600190565b6020808252601e908201527f576f726c6465734d696e653a20414c52454144595f57495448445241574e0000604082015260600190565b6020808252818101527f576f726c6465734d696e653a204d494e494e475f4e4f545f46494e4953484544604082015260600190565b6020808252818101527f576f726c6465734d696e653a2043414e4e4f545f4445504f5349545f5a45524f604082015260600190565b6020808252818101527f576f726c6465734d696e653a2053544152545f424c4f434b5f494e56414c4944604082015260600190565b6020808252818101527f576f726c6465734d696e653a205245574152445f49445f4e4f545f464f554e44604082015260600190565b6020808252600990820152682727aa2fa7aba722a960b91b604082015260600190565b60208082526009908201526820a2222fa2a92927a960b91b604082015260600190565b60208082526017908201527f576f726c6465734d696e653a204e4f545f454e4f554748000000000000000000604082015260600190565b6020808252602a908201527f5361666545524332303a204552433230206f7065726174696f6e20646964206e6040820152691bdd081cdd58d8d9595960b21b606082015260800190565b6020808252601a908201527f576f726c6465734d696e653a20544f4b454e5f494e56414c4944000000000000604082015260600190565b6020808252601c908201527f576f726c6465734d696e653a20544f4b454e5f4e4f545f464f554e4400000000604082015260600190565b60208082526009908201526826aaa62fa2a92927a960b91b604082015260600190565b6020808252601a908201527f576f726c6465734d696e653a20414c52454144595f434c4f5345000000000000604082015260600190565b90815260200190565b918252602082015260400190565b6001600160a01b0381168114612a2957600080fd5b5056fe608060405234801561001057600080fd5b506040516108083803806108088339818101604052602081101561003357600080fd5b5051600080546001600160a01b03191633178082556040516001600160a01b039190911691907f8be0079c531659141344cd1fd0a4f28419497f9722a3daafe3b4186f6b6457e0908290a3600480546001600160a01b0319166001600160a01b039290921691909117905561075b806100ad6000396000f3fe608060405234801561001057600080fd5b506004361061009e5760003560e01c806375c5ea111161006657806375c5ea11146101175780638456db151461011f578063ca1896ab14610127578063d7502ef41461012f578063f2fde38b146101375761009e565b806316048bc4146100a357806321670f22146100c75780634e71e0c8146100f5578063586235b4146100fd5780636aa1afd6146100c7575b600080fd5b6100ab61015d565b604080516001600160a01b039092168252519081900360200190f35b6100f3600480360360408110156100dd57600080fd5b506001600160a01b03813516906020013561016c565b005b6100f3610238565b6101056102eb565b60408051918252519081900360200190f35b6100ab6102f1565b6100ab610300565b6100f361030f565b610105610407565b6100f36004803603602081101561014d57600080fd5b50356001600160a01b031661040d565b6000546001600160a01b031681565b6000546001600160a01b031633146101b7576040805162461bcd60e51b81526020600482015260096024820152682727aa2fa7aba722a960b91b604482015290519081900360640190fd5b806002541015610201576040805162461bcd60e51b815260206004820152601060248201526f0ac82aa98a8be9c9ea8be8a9c9eaa8e960831b604482015290519081900360640190fd5b600254610214908263ffffffff6104b316565b600255600454610234906001600160a01b0316838363ffffffff6104fc16565b5050565b6001546001600160a01b03163314610287576040805162461bcd60e51b815260206004820152600d60248201526c494e56414c49445f434c41494d60981b604482015290519081900360640190fd5b600154600080546040516001600160a01b0393841693909116917f8be0079c531659141344cd1fd0a4f28419497f9722a3daafe3b4186f6b6457e091a360018054600080546001600160a01b03199081166001600160a01b03841617909155169055565b60025481565b6004546001600160a01b031681565b6001546001600160a01b031681565b60048054604080516370a0823160e01b81523093810193909352516000926001600160a01b03909216916370a08231916024808301926020929190829003018186803b15801561035e57600080fd5b505afa158015610372573d6000803e3d6000fd5b505050506040513d602081101561038857600080fd5b50516002549091506000906103a490839063ffffffff6104b316565b6003549091506103ba908263ffffffff61055316565b600381905560028390556040805191825260208201839052818101849052517fed9a567f42e0ef8986598c5257db7be662f4eaae3892286b03c5ba3a1ddf399b9181900360600190a15050565b60035481565b6000546001600160a01b03163314610458576040805162461bcd60e51b81526020600482015260096024820152682727aa2fa7aba722a960b91b604482015290519081900360640190fd5b600080546040516001600160a01b03808516939216917fdcf55418cee3220104fef63f979ff3c4097ad240c0c43dcb33ce837748983e6291a3600180546001600160a01b0319166001600160a01b0392909216919091179055565b6000828211156104f6576040805162461bcd60e51b815260206004820152600960248201526829aaa12fa2a92927a960b91b604482015290519081900360640190fd5b50900390565b604080516001600160a01b038416602482015260448082018490528251808303909101815260649091019091526020810180516001600160e01b031663a9059cbb60e01b17905261054e9084906105a0565b505050565b600082820183811015610599576040805162461bcd60e51b815260206004820152600960248201526820a2222fa2a92927a960b91b604482015290519081900360640190fd5b9392505050565b60006060836001600160a01b0316836040518082805190602001908083835b602083106105de5780518252601f1990920191602091820191016105bf565b6001836020036101000a0380198251168184511680821785525050505050509050019150506000604051808303816000865af19150503d8060008114610640576040519150601f19603f3d011682016040523d82523d6000602084013e610645565b606091505b50915091508161069c576040805162461bcd60e51b815260206004820181905260248201527f5361666545524332303a206c6f772d6c6576656c2063616c6c206661696c6564604482015290519081900360640190fd5b8051156106f5578080602001905160208110156106b857600080fd5b50516106f55760405162461bcd60e51b815260040180806020018281038252602a8152602001806106fc602a913960400191505060405180910390fd5b5050505056fe5361666545524332303a204552433230206f7065726174696f6e20646964206e6f742073756363656564a26469706673582212201e2768869b5fae79b7c9d191818f984b7eacbfe274790bf65f24e196969c6b7264736f6c63430006090033a26469706673582212205d34cb05f17c80c935126bcfc0c8e76ce5cd945da72a20ada9529ae697c8122464736f6c63430006090033",
  "linkReferences": {},
  "deployedLinkReferences": {}
}