{
  "_format": "hh-sol-artifact-1",
  "contractName": "WorldesDvmProxy",
  "sourceName": "contracts/proxy/WorldesDvmProxy.sol",
  "abi": [
    {
      "inputs": [
        {
          "internalType": "address",
          "name": "dvmFactory",
          "type": "address"
        },
        {
          "internalType": "address payable",
          "name": "weth",
          "type": "address"
        },
        {
          "internalType": "address",
          "name": "worldesApproveProxy",
          "type": "address"
        }
      ],
      "stateMutability": "nonpayable",
      "type": "constructor"
    },
    {
      "anonymous": false,
      "inputs": [
        {
          "indexed": false,
          "internalType": "address",
          "name": "fromToken",
          "type": "address"
        },
        {
          "indexed": false,
          "internalType": "address",
          "name": "toToken",
          "type": "address"
        },
        {
          "indexed": false,
          "internalType": "address",
          "name": "sender",
          "type": "address"
        },
        {
          "indexed": false,
          "internalType": "uint256",
          "name": "fromAmount",
          "type": "uint256"
        },
        {
          "indexed": false,
          "internalType": "uint256",
          "name": "returnAmount",
          "type": "uint256"
        }
      ],
      "name": "OrderHistory",
      "type": "event"
    },
    {
      "anonymous": false,
      "inputs": [
        {
          "indexed": true,
          "internalType": "address",
          "name": "previousOwner",
          "type": "address"
        },
        {
          "indexed": true,
          "internalType": "address",
          "name": "newOwner",
          "type": "address"
        }
      ],
      "name": "OwnershipTransferPrepared",
      "type": "event"
    },
    {
      "anonymous": false,
      "inputs": [
        {
          "indexed": true,
          "internalType": "address",
          "name": "previousOwner",
          "type": "address"
        },
        {
          "indexed": true,
          "internalType": "address",
          "name": "newOwner",
          "type": "address"
        }
      ],
      "name": "OwnershipTransferred",
      "type": "event"
    },
    {
      "stateMutability": "payable",
      "type": "fallback"
    },
    {
      "inputs": [],
      "name": "_DVM_FACTORY_",
      "outputs": [
        {
          "internalType": "address",
          "name": "",
          "type": "address"
        }
      ],
      "stateMutability": "view",
      "type": "function"
    },
    {
      "inputs": [],
      "name": "_NEW_OWNER_",
      "outputs": [
        {
          "internalType": "address",
          "name": "",
          "type": "address"
        }
      ],
      "stateMutability": "view",
      "type": "function"
    },
    {
      "inputs": [],
      "name": "_OWNER_",
      "outputs": [
        {
          "internalType": "address",
          "name": "",
          "type": "address"
        }
      ],
      "stateMutability": "view",
      "type": "function"
    },
    {
      "inputs": [],
      "name": "_WETH_",
      "outputs": [
        {
          "internalType": "address",
          "name": "",
          "type": "address"
        }
      ],
      "stateMutability": "view",
      "type": "function"
    },
    {
      "inputs": [],
      "name": "_WORLDES_APPROVE_PROXY_",
      "outputs": [
        {
          "internalType": "address",
          "name": "",
          "type": "address"
        }
      ],
      "stateMutability": "view",
      "type": "function"
    },
    {
      "inputs": [
        {
          "internalType": "address",
          "name": "dvmAddress",
          "type": "address"
        },
        {
          "internalType": "uint256",
          "name": "baseInAmount",
          "type": "uint256"
        },
        {
          "internalType": "uint256",
          "name": "quoteInAmount",
          "type": "uint256"
        },
        {
          "internalType": "uint256",
          "name": "baseMinAmount",
          "type": "uint256"
        },
        {
          "internalType": "uint256",
          "name": "quoteMinAmount",
          "type": "uint256"
        },
        {
          "internalType": "uint8",
          "name": "flag",
          "type": "uint8"
        },
        {
          "internalType": "uint256",
          "name": "deadLine",
          "type": "uint256"
        }
      ],
      "name": "addDVMLiquidity",
      "outputs": [
        {
          "internalType": "uint256",
          "name": "shares",
          "type": "uint256"
        },
        {
          "internalType": "uint256",
          "name": "baseAdjustedInAmount",
          "type": "uint256"
        },
        {
          "internalType": "uint256",
          "name": "quoteAdjustedInAmount",
          "type": "uint256"
        }
      ],
      "stateMutability": "payable",
      "type": "function"
    },
    {
      "inputs": [
        {
          "internalType": "address",
          "name": "contractAddr",
          "type": "address"
        }
      ],
      "name": "addWhiteList",
      "outputs": [],
      "stateMutability": "nonpayable",
      "type": "function"
    },
    {
      "inputs": [],
      "name": "claimOwnership",
      "outputs": [],
      "stateMutability": "nonpayable",
      "type": "function"
    },
    {
      "inputs": [
        {
          "internalType": "address",
          "name": "baseToken",
          "type": "address"
        },
        {
          "internalType": "address",
          "name": "quoteToken",
          "type": "address"
        },
        {
          "internalType": "uint256",
          "name": "baseInAmount",
          "type": "uint256"
        },
        {
          "internalType": "uint256",
          "name": "quoteInAmount",
          "type": "uint256"
        },
        {
          "internalType": "uint256",
          "name": "lpFeeRate",
          "type": "uint256"
        },
        {
          "internalType": "uint256",
          "name": "i",
          "type": "uint256"
        },
        {
          "internalType": "uint256",
          "name": "k",
          "type": "uint256"
        },
        {
          "internalType": "bool",
          "name": "isOpenTWAP",
          "type": "bool"
        },
        {
          "internalType": "uint256",
          "name": "deadLine",
          "type": "uint256"
        }
      ],
      "name": "createVendingMachine",
      "outputs": [
        {
          "internalType": "address",
          "name": "newVendingMachine",
          "type": "address"
        },
        {
          "internalType": "uint256",
          "name": "shares",
          "type": "uint256"
        }
      ],
      "stateMutability": "payable",
      "type": "function"
    },
    {
      "inputs": [
        {
          "internalType": "address",
          "name": "fromToken",
          "type": "address"
        },
        {
          "internalType": "address",
          "name": "toToken",
          "type": "address"
        },
        {
          "internalType": "address",
          "name": "approveTarget",
          "type": "address"
        },
        {
          "internalType": "address",
          "name": "swapTarget",
          "type": "address"
        },
        {
          "internalType": "uint256",
          "name": "fromTokenAmount",
          "type": "uint256"
        },
        {
          "internalType": "uint256",
          "name": "minReturnAmount",
          "type": "uint256"
        },
        {
          "internalType": "bytes",
          "name": "callDataConcat",
          "type": "bytes"
        },
        {
          "internalType": "uint256",
          "name": "deadLine",
          "type": "uint256"
        }
      ],
      "name": "externalSwap",
      "outputs": [
        {
          "internalType": "uint256",
          "name": "returnAmount",
          "type": "uint256"
        }
      ],
      "stateMutability": "payable",
      "type": "function"
    },
    {
      "inputs": [
        {
          "internalType": "address",
          "name": "newOwner",
          "type": "address"
        }
      ],
      "name": "initOwner",
      "outputs": [],
      "stateMutability": "nonpayable",
      "type": "function"
    },
    {
      "inputs": [
        {
          "internalType": "address",
          "name": "",
          "type": "address"
        }
      ],
      "name": "isWhiteListed",
      "outputs": [
        {
          "internalType": "bool",
          "name": "",
          "type": "bool"
        }
      ],
      "stateMutability": "view",
      "type": "function"
    },
    {
      "inputs": [
        {
          "internalType": "address",
          "name": "contractAddr",
          "type": "address"
        }
      ],
      "name": "removeWhiteList",
      "outputs": [],
      "stateMutability": "nonpayable",
      "type": "function"
    },
    {
      "inputs": [
        {
          "internalType": "address",
          "name": "newOwner",
          "type": "address"
        }
      ],
      "name": "transferOwnership",
      "outputs": [],
      "stateMutability": "nonpayable",
      "type": "function"
    },
    {
      "inputs": [
        {
          "internalType": "address",
          "name": "toToken",
          "type": "address"
        },
        {
          "internalType": "uint256",
          "name": "minReturnAmount",
          "type": "uint256"
        },
        {
          "internalType": "address[]",
          "name": "worldesPairs",
          "type": "address[]"
        },
        {
          "internalType": "uint256",
          "name": "directions",
          "type": "uint256"
        },
        {
          "internalType": "uint256",
          "name": "deadLine",
          "type": "uint256"
        }
      ],
      "name": "worldesSwapETHToToken",
      "outputs": [
        {
          "internalType": "uint256",
          "name": "returnAmount",
          "type": "uint256"
        }
      ],
      "stateMutability": "payable",
      "type": "function"
    },
    {
      "inputs": [
        {
          "internalType": "address",
          "name": "fromToken",
          "type": "address"
        },
        {
          "internalType": "uint256",
          "name": "fromTokenAmount",
          "type": "uint256"
        },
        {
          "internalType": "uint256",
          "name": "minReturnAmount",
          "type": "uint256"
        },
        {
          "internalType": "address[]",
          "name": "worldesPairs",
          "type": "address[]"
        },
        {
          "internalType": "uint256",
          "name": "directions",
          "type": "uint256"
        },
        {
          "internalType": "uint256",
          "name": "deadLine",
          "type": "uint256"
        }
      ],
      "name": "worldesSwapTokenToETH",
      "outputs": [
        {
          "internalType": "uint256",
          "name": "returnAmount",
          "type": "uint256"
        }
      ],
      "stateMutability": "nonpayable",
      "type": "function"
    },
    {
      "inputs": [
        {
          "internalType": "address",
          "name": "fromToken",
          "type": "address"
        },
        {
          "internalType": "address",
          "name": "toToken",
          "type": "address"
        },
        {
          "internalType": "uint256",
          "name": "fromTokenAmount",
          "type": "uint256"
        },
        {
          "internalType": "uint256",
          "name": "minReturnAmount",
          "type": "uint256"
        },
        {
          "internalType": "address[]",
          "name": "worldesPairs",
          "type": "address[]"
        },
        {
          "internalType": "uint256",
          "name": "directions",
          "type": "uint256"
        },
        {
          "internalType": "uint256",
          "name": "deadLine",
          "type": "uint256"
        }
      ],
      "name": "worldesSwapTokenToToken",
      "outputs": [
        {
          "internalType": "uint256",
          "name": "returnAmount",
          "type": "uint256"
        }
      ],
      "stateMutability": "nonpayable",
      "type": "function"
    },
    {
      "stateMutability": "payable",
      "type": "receive"
    }
  ],
  "bytecode": "0x60e060405234801561001057600080fd5b506040516131443803806131448339818101604052606081101561003357600080fd5b50805160208201516040909201516001600160601b0319606092831b811660c05292821b8316608052901b1660a05260805160601c60a05160601c60c05160601c61306c6100d8600039806119175280611e4d52508061098552806114a952806117755280611f7052806129b552508061077e5280610f815280610fe8528061185d52806118ad528061230d52806123c252806128c95280612951525061306c6000f3fe6080604052600436106101025760003560e01c80634b44857b116100955780636f9170f6116100645780636f9170f6146105625780638456db15146105a9578063a9d09e40146105be578063e7cd4a041461068d578063f2fde38b146106c057610109565b80634b44857b1461044c5780634e71e0c8146104cd578063674d9422146104e257806369e4e4171461054d57610109565b8063281e4605116100d1578063281e4605146101b7578063302c2064146102a157806338f4c1881461035c5780634b23cca21461043757610109565b80630d0092971461010b5780630d4eec8f1461013e57806316048bc41461016f5780632042e5c21461018457610109565b3661010957005b005b34801561011757600080fd5b506101096004803603602081101561012e57600080fd5b50356001600160a01b03166106f3565b34801561014a57600080fd5b5061015361077c565b604080516001600160a01b039092168252519081900360200190f35b34801561017b57600080fd5b506101536107a0565b34801561019057600080fd5b50610109600480360360208110156101a757600080fd5b50356001600160a01b03166107b4565b3480156101c357600080fd5b5061028f600480360360e08110156101da57600080fd5b6001600160a01b03823581169260208101359091169160408201359160608101359181019060a081016080820135600160201b81111561021957600080fd5b82018360208201111561022b57600080fd5b803590602001918460208302840111600160201b8311171561024c57600080fd5b9190808060200260200160405190810160405280939291908181526020018383602002808284376000920191909152509295505082359350505060200135610825565b60408051918252519081900360200190f35b61028f600480360360a08110156102b757600080fd5b6001600160a01b0382351691602081013591810190606081016040820135600160201b8111156102e657600080fd5b8201836020820111156102f857600080fd5b803590602001918460208302840111600160201b8311171561031957600080fd5b9190808060200260200160405190810160405280939291908181526020018383602002808284376000920191909152509295505082359350505060200135610e13565b61028f600480360361010081101561037357600080fd5b6001600160a01b038235811692602081013582169260408201358316926060830135169160808101359160a0820135919081019060e0810160c0820135600160201b8111156103c157600080fd5b8201836020820111156103d357600080fd5b803590602001918460018302840111600160201b831117156103f457600080fd5b91908080601f01602080910402602001604051908101604052809392919081815260200183838082843760009201919091525092955050913592506113ae915050565b34801561044357600080fd5b50610153611773565b6104aa600480360361012081101561046357600080fd5b506001600160a01b03813581169160208101359091169060408101359060608101359060808101359060a08101359060c08101359060e08101351515906101000135611797565b604080516001600160a01b03909316835260208301919091528051918290030190f35b3480156104d957600080fd5b50610109611a81565b61052f600480360360e08110156104f857600080fd5b506001600160a01b038135169060208101359060408101359060608101359060808101359060ff60a0820135169060c00135611b45565b60408051938452602084019290925282820152519081900360600190f35b34801561055957600080fd5b50610153611e4b565b34801561056e57600080fd5b506105956004803603602081101561058557600080fd5b50356001600160a01b0316611e6f565b604080519115158252519081900360200190f35b3480156105b557600080fd5b50610153611e84565b3480156105ca57600080fd5b5061028f600480360360c08110156105e157600080fd5b6001600160a01b038235169160208101359160408201359190810190608081016060820135600160201b81111561061757600080fd5b82018360208201111561062957600080fd5b803590602001918460208302840111600160201b8311171561064a57600080fd5b9190808060200260200160405190810160405280939291908181526020018383602002808284376000920191909152509295505082359350505060200135611e93565b34801561069957600080fd5b50610109600480360360208110156106b057600080fd5b50356001600160a01b03166124ce565b3480156106cc57600080fd5b50610109600480360360208110156106e357600080fd5b50356001600160a01b0316612542565b600154600160a01b900460ff1615610741576040805162461bcd60e51b815260206004820152600c60248201526b17d25392551250531256915160a21b604482015290519081900360640190fd5b6001805460ff60a01b1916600160a01b179055600080546001600160a01b0390921661010002610100600160a81b0319909216919091179055565b7f000000000000000000000000000000000000000000000000000000000000000081565b60005461010090046001600160a01b031681565b60005461010090046001600160a01b03163314610804576040805162461bcd60e51b81526020600482015260096024820152682727aa2fa7aba722a960b91b604482015290519081900360640190fd5b6001600160a01b03166000908152600260205260409020805460ff19169055565b6000814281101561086b576040805162461bcd60e51b81526020600482015260186024820152600080516020612fb7833981519152604482015290519081900360640190fd5b60008551116108c1576040805162461bcd60e51b815260206004820152601c60248201527f576f726c64657344766d50726f78793a2050414952535f454d50545900000000604482015290519081900360640190fd5b600086116109005760405162461bcd60e51b8152600401808060200182810382526023815260200180612f676023913960400191505060405180910390fd5b604080516370a0823160e01b815233600482015290516000916001600160a01b038b16916370a0823191602480820192602092909190829003018186803b15801561094a57600080fd5b505afa15801561095e573d6000803e3d6000fd5b505050506040513d602081101561097457600080fd5b505186519091506001600160a01b037f00000000000000000000000000000000000000000000000000000000000000001690630a5ea466908c9033908a906000906109bb57fe5b60200260200101518c6040518563ffffffff1660e01b815260040180856001600160a01b03166001600160a01b03168152602001846001600160a01b03166001600160a01b03168152602001836001600160a01b03166001600160a01b03168152602001828152602001945050505050600060405180830381600087803b158015610a4557600080fd5b505af1158015610a59573d6000803e3d6000fd5b506000925050505b8651811015610cfb576001875103811415610bb85760018616610b1b57868181518110610a8a57fe5b60200260200101516001600160a01b031663bd6015b4336040518263ffffffff1660e01b815260040180826001600160a01b03166001600160a01b03168152602001915050602060405180830381600087803b158015610ae957600080fd5b505af1158015610afd573d6000803e3d6000fd5b505050506040513d6020811015610b1357600080fd5b50610bb39050565b868181518110610b2757fe5b60200260200101516001600160a01b031663dd93f59a336040518263ffffffff1660e01b815260040180826001600160a01b03166001600160a01b03168152602001915050602060405180830381600087803b158015610b8657600080fd5b505af1158015610b9a573d6000803e3d6000fd5b505050506040513d6020811015610bb057600080fd5b50505b610cef565b60018616610c4157868181518110610bcc57fe5b60200260200101516001600160a01b031663bd6015b4888360010181518110610bf157fe5b60200260200101516040518263ffffffff1660e01b815260040180826001600160a01b03166001600160a01b03168152602001915050602060405180830381600087803b158015610b8657600080fd5b868181518110610c4d57fe5b60200260200101516001600160a01b031663dd93f59a888360010181518110610c7257fe5b60200260200101516040518263ffffffff1660e01b815260040180826001600160a01b03166001600160a01b03168152602001915050602060405180830381600087803b158015610cc257600080fd5b505af1158015610cd6573d6000803e3d6000fd5b505050506040513d6020811015610cec57600080fd5b50505b600195861c9501610a61565b50604080516370a0823160e01b81523360048201529051610d809183916001600160a01b038d16916370a08231916024808301926020929190829003018186803b158015610d4857600080fd5b505afa158015610d5c573d6000803e3d6000fd5b505050506040513d6020811015610d7257600080fd5b50519063ffffffff6125f216565b925086831015610dc15760405162461bcd60e51b815260040180806020018281038252602c815260200180612f0c602c913960400191505060405180910390fd5b604080516001600160a01b03808d1682528b1660208201523381830152606081018a9052608081018590529051600080516020612ec58339815191529181900360a00190a15050979650505050505050565b60008142811015610e59576040805162461bcd60e51b81526020600482015260186024820152600080516020612fb7833981519152604482015290519081900360640190fd5b6000855111610eaf576040805162461bcd60e51b815260206004820152601c60248201527f576f726c64657344766d50726f78793a2050414952535f454d50545900000000604482015290519081900360640190fd5b60008611610eee5760405162461bcd60e51b8152600401808060200182810382526023815260200180612f676023913960400191505060405180910390fd5b604080516370a0823160e01b815233600482015290516000916001600160a01b038a16916370a0823191602480820192602092909190829003018186803b158015610f3857600080fd5b505afa158015610f4c573d6000803e3d6000fd5b505050506040513d6020811015610f6257600080fd5b505160408051630d0e30db60e41b815290519192506001600160a01b037f0000000000000000000000000000000000000000000000000000000000000000169163d0e30db0913491600480830192600092919082900301818588803b158015610fca57600080fd5b505af1158015610fde573d6000803e3d6000fd5b50505050506110227f00000000000000000000000000000000000000000000000000000000000000008760008151811061101457fe5b602002602001015134612640565b60005b86518110156112bf57600187510381141561117c57600186166110df5786818151811061104e57fe5b60200260200101516001600160a01b031663bd6015b4336040518263ffffffff1660e01b815260040180826001600160a01b03166001600160a01b03168152602001915050602060405180830381600087803b1580156110ad57600080fd5b505af11580156110c1573d6000803e3d6000fd5b505050506040513d60208110156110d757600080fd5b506111779050565b8681815181106110eb57fe5b60200260200101516001600160a01b031663dd93f59a336040518263ffffffff1660e01b815260040180826001600160a01b03166001600160a01b03168152602001915050602060405180830381600087803b15801561114a57600080fd5b505af115801561115e573d6000803e3d6000fd5b505050506040513d602081101561117457600080fd5b50505b6112b3565b600186166112055786818151811061119057fe5b60200260200101516001600160a01b031663bd6015b48883600101815181106111b557fe5b60200260200101516040518263ffffffff1660e01b815260040180826001600160a01b03166001600160a01b03168152602001915050602060405180830381600087803b15801561114a57600080fd5b86818151811061121157fe5b60200260200101516001600160a01b031663dd93f59a88836001018151811061123657fe5b60200260200101516040518263ffffffff1660e01b815260040180826001600160a01b03166001600160a01b03168152602001915050602060405180830381600087803b15801561128657600080fd5b505af115801561129a573d6000803e3d6000fd5b505050506040513d60208110156112b057600080fd5b50505b600195861c9501611025565b50604080516370a0823160e01b8152336004820152905161130c9183916001600160a01b038c16916370a08231916024808301926020929190829003018186803b158015610d4857600080fd5b92508683101561134d5760405162461bcd60e51b815260040180806020018281038252602c815260200180612f0c602c913960400191505060405180910390fd5b6040805173eeeeeeeeeeeeeeeeeeeeeeeeeeeeeeeeeeeeeeee81526001600160a01b038a1660208201523381830152346060820152608081018590529051600080516020612ec58339815191529181900360a00190a1505095945050505050565b600081428110156113f4576040805162461bcd60e51b81526020600482015260186024820152600080516020612fb7833981519152604482015290519081900360640190fd5b600085116114335760405162461bcd60e51b8152600401808060200182810382526023815260200180612f676023913960400191505060405180910390fd5b600061144e6001600160a01b038b163363ffffffff61269716565b90506001600160a01b038b1673eeeeeeeeeeeeeeeeeeeeeeeeeeeeeeeeeeeeeeee14611520576040805163052f523360e11b81526001600160a01b038d81166004830152336024830152306044830152606482018a905291517f000000000000000000000000000000000000000000000000000000000000000090921691630a5ea4669160848082019260009290919082900301818387803b1580156114f357600080fd5b505af1158015611507573d6000803e3d6000fd5b50611520925050506001600160a01b038c168a89612741565b6001600160a01b03881660009081526002602052604090205460ff166115775760405162461bcd60e51b8152600401808060200182810382526027815260200180612ee56027913960400191505060405180910390fd5b60006001600160a01b03808a16908d1673eeeeeeeeeeeeeeeeeeeeeeeeeeeeeeeeeeeeeeee146115a85760006115aa565b345b876040518082805190602001908083835b602083106115da5780518252601f1990920191602091820191016115bb565b6001836020036101000a03801982511681845116808217855250505050505090500191505060006040518083038185875af1925050503d806000811461163c576040519150601f19603f3d011682016040523d82523d6000602084013e611641565b606091505b50509050806116815760405162461bcd60e51b815260040180806020018281038252602f815260200180612f38602f913960400191505060405180910390fd5b6116b53361169e6001600160a01b038e163063ffffffff61269716565b6001600160a01b038e16919063ffffffff61280b16565b6116de826116d26001600160a01b038e163363ffffffff61269716565b9063ffffffff6125f216565b93508684101561171f5760405162461bcd60e51b815260040180806020018281038252602c815260200180612f0c602c913960400191505060405180910390fd5b604080516001600160a01b03808f1682528d1660208201523381830152606081018a9052608081018690529051600080516020612ec58339815191529181900360a00190a150505098975050505050505050565b7f000000000000000000000000000000000000000000000000000000000000000081565b60008054819060ff16156117de576040805162461bcd60e51b815260206004820152600960248201526814915153951490539560ba1b604482015290519081900360640190fd5b6000805460ff19166001179055824281101561182f576040805162461bcd60e51b81526020600482015260186024820152600080516020612fb7833981519152604482015290519081900360640190fd5b60006001600160a01b038d1673eeeeeeeeeeeeeeeeeeeeeeeeeeeeeeeeeeeeeeee1461185b578c61187d565b7f00000000000000000000000000000000000000000000000000000000000000005b905060006001600160a01b038d1673eeeeeeeeeeeeeeeeeeeeeeeeeeeeeeeeeeeeeeee146118ab578c6118cd565b7f00000000000000000000000000000000000000000000000000000000000000005b60408051630ee3d9ef60e41b81526001600160a01b0385811660048301528381166024830152604482018e9052606482018d9052608482018c90528a151560a483015291519293507f00000000000000000000000000000000000000000000000000000000000000009091169163ee3d9ef09160c4808201926020929091908290030181600087803b15801561196257600080fd5b505af1158015611976573d6000803e3d6000fd5b505050506040513d602081101561198c57600080fd5b505194508d91508c90506119c23386848f6001600160a01b03821673eeeeeeeeeeeeeeeeeeeeeeeeeeeeeeeeeeeeeeee14612875565b6119ee3386838e6001600160a01b03821673eeeeeeeeeeeeeeeeeeeeeeeeeeeeeeeeeeeeeeee14612875565b505060408051634c85b42560e01b815233600482015290516001600160a01b03851691634c85b4259160248083019260609291908290030181600087803b158015611a3857600080fd5b505af1158015611a4c573d6000803e3d6000fd5b505050506040513d6060811015611a6257600080fd5b50516000805460ff19169055929c929b50919950505050505050505050565b6001546001600160a01b03163314611ad0576040805162461bcd60e51b815260206004820152600d60248201526c494e56414c49445f434c41494d60981b604482015290519081900360640190fd5b600154600080546040516001600160a01b0393841693610100909204909116917f8be0079c531659141344cd1fd0a4f28419497f9722a3daafe3b4186f6b6457e091a36001805460008054610100600160a81b0319166101006001600160a01b038416021790556001600160a01b0319169055565b600080548190819060ff1615611b8e576040805162461bcd60e51b815260206004820152600960248201526814915153951490539560ba1b604482015290519081900360640190fd5b6000805460ff191660011790558342811015611bdf576040805162461bcd60e51b81526020600482015260186024820152600080516020612fb7833981519152604482015290519081900360640190fd5b8a611beb818c8c612a1f565b9094509250888410801590611c005750878310155b611c3b5760405162461bcd60e51b815260040180806020018281038252602d815260200180612f8a602d913960400191505060405180910390fd5b611cb23382836001600160a01b0316634a248d2a6040518163ffffffff1660e01b815260040160206040518083038186803b158015611c7957600080fd5b505afa158015611c8d573d6000803e3d6000fd5b505050506040513d6020811015611ca357600080fd5b505187600160ff8d1614612875565b611d293382836001600160a01b031663d4b970466040518163ffffffff1660e01b815260040160206040518083038186803b158015611cf057600080fd5b505afa158015611d04573d6000803e3d6000fd5b505050506040513d6020811015611d1a57600080fd5b505186600260ff8d1614612875565b60408051634c85b42560e01b815233600482015290516001600160a01b03831691634c85b4259160248083019260609291908290030181600087803b158015611d7157600080fd5b505af1158015611d85573d6000803e3d6000fd5b505050506040513d6060811015611d9b57600080fd5b50519450600160ff8816148015611db157508334115b15611de75760405133903486900380156108fc02916000818181858888f19350505050158015611de5573d6000803e3d6000fd5b505b8660ff166002148015611df957508234115b15611e2f5760405133903485900380156108fc02916000818181858888f19350505050158015611e2d573d6000803e3d6000fd5b505b50506000805460ff191690559199909850909650945050505050565b7f000000000000000000000000000000000000000000000000000000000000000081565b60026020526000908152604090205460ff1681565b6001546001600160a01b031681565b60008142811015611ed9576040805162461bcd60e51b81526020600482015260186024820152600080516020612fb7833981519152604482015290519081900360640190fd5b6000855111611f2f576040805162461bcd60e51b815260206004820152601c60248201527f576f726c64657344766d50726f78793a2050414952535f454d50545900000000604482015290519081900360640190fd5b60008611611f6e5760405162461bcd60e51b8152600401808060200182810382526023815260200180612f676023913960400191505060405180910390fd5b7f00000000000000000000000000000000000000000000000000000000000000006001600160a01b0316630a5ea466893388600081518110611fac57fe5b60200260200101518b6040518563ffffffff1660e01b815260040180856001600160a01b03166001600160a01b03168152602001846001600160a01b03166001600160a01b03168152602001836001600160a01b03166001600160a01b03168152602001828152602001945050505050600060405180830381600087803b15801561203657600080fd5b505af115801561204a573d6000803e3d6000fd5b506000925050505b85518110156122ec5760018651038114156121a9576001851661210c5785818151811061207b57fe5b60200260200101516001600160a01b031663bd6015b4306040518263ffffffff1660e01b815260040180826001600160a01b03166001600160a01b03168152602001915050602060405180830381600087803b1580156120da57600080fd5b505af11580156120ee573d6000803e3d6000fd5b505050506040513d602081101561210457600080fd5b506121a49050565b85818151811061211857fe5b60200260200101516001600160a01b031663dd93f59a306040518263ffffffff1660e01b815260040180826001600160a01b03166001600160a01b03168152602001915050602060405180830381600087803b15801561217757600080fd5b505af115801561218b573d6000803e3d6000fd5b505050506040513d60208110156121a157600080fd5b50505b6122e0565b60018516612232578581815181106121bd57fe5b60200260200101516001600160a01b031663bd6015b48783600101815181106121e257fe5b60200260200101516040518263ffffffff1660e01b815260040180826001600160a01b03166001600160a01b03168152602001915050602060405180830381600087803b15801561217757600080fd5b85818151811061223e57fe5b60200260200101516001600160a01b031663dd93f59a87836001018151811061226357fe5b60200260200101516040518263ffffffff1660e01b815260040180826001600160a01b03166001600160a01b03168152602001915050602060405180830381600087803b1580156122b357600080fd5b505af11580156122c7573d6000803e3d6000fd5b505050506040513d60208110156122dd57600080fd5b50505b600194851c9401612052565b50604080516370a0823160e01b815230600482015290516001600160a01b037f000000000000000000000000000000000000000000000000000000000000000016916370a08231916024808301926020929190829003018186803b15801561235357600080fd5b505afa158015612367573d6000803e3d6000fd5b505050506040513d602081101561237d57600080fd5b50519150858210156123c05760405162461bcd60e51b815260040180806020018281038252602c815260200180612f0c602c913960400191505060405180910390fd5b7f00000000000000000000000000000000000000000000000000000000000000006001600160a01b0316632e1a7d4d836040518263ffffffff1660e01b815260040180828152602001915050600060405180830381600087803b15801561242657600080fd5b505af115801561243a573d6000803e3d6000fd5b505060405133925084156108fc02915084906000818181858888f1935050505015801561246b573d6000803e3d6000fd5b50604080516001600160a01b038a16815273eeeeeeeeeeeeeeeeeeeeeeeeeeeeeeeeeeeeeeee6020820152338183015260608101899052608081018490529051600080516020612ec58339815191529181900360a00190a1509695505050505050565b60005461010090046001600160a01b0316331461251e576040805162461bcd60e51b81526020600482015260096024820152682727aa2fa7aba722a960b91b604482015290519081900360640190fd5b6001600160a01b03166000908152600260205260409020805460ff19166001179055565b60005461010090046001600160a01b03163314612592576040805162461bcd60e51b81526020600482015260096024820152682727aa2fa7aba722a960b91b604482015290519081900360640190fd5b600080546040516001600160a01b038085169361010090930416917fdcf55418cee3220104fef63f979ff3c4097ad240c0c43dcb33ce837748983e6291a3600180546001600160a01b0319166001600160a01b0392909216919091179055565b600082821115612635576040805162461bcd60e51b815260206004820152600960248201526829aaa12fa2a92927a960b91b604482015290519081900360640190fd5b508082035b92915050565b604080516001600160a01b038416602482015260448082018490528251808303909101815260649091019091526020810180516001600160e01b031663a9059cbb60e01b179052612692908490612b31565b505050565b60006126a283612c86565b156126b857506001600160a01b0381163161263a565b826001600160a01b03166370a08231836040518263ffffffff1660e01b815260040180826001600160a01b03166001600160a01b0316815260200191505060206040518083038186803b15801561270e57600080fd5b505afa158015612722573d6000803e3d6000fd5b505050506040513d602081101561273857600080fd5b5051905061263a565b60408051636eb1769f60e11b81523060048201526001600160a01b038481166024830152915160009286169163dd62ed3e916044808301926020929190829003018186803b15801561279257600080fd5b505afa1580156127a6573d6000803e3d6000fd5b505050506040513d60208110156127bc57600080fd5b50519050818110156128055780156127e9576127e96001600160a01b03851684600063ffffffff612cab16565b6128056001600160a01b0385168460001963ffffffff612cab16565b50505050565b80156126925761281a83612c86565b1561285b576040516001600160a01b0383169082156108fc029083906000818181858888f19350505050158015612855573d6000803e3d6000fd5b50612692565b6126926001600160a01b038416838363ffffffff61264016565b801561297c578115612977578134146128c7576040805162461bcd60e51b815260206004820152600f60248201526e4554485f56414c55455f57524f4e4760881b604482015290519081900360640190fd5b7f00000000000000000000000000000000000000000000000000000000000000006001600160a01b031663d0e30db0836040518263ffffffff1660e01b81526004016000604051808303818588803b15801561292257600080fd5b505af1158015612936573d6000803e3d6000fd5b505050506001600160a01b03851630149050612977576129777f00000000000000000000000000000000000000000000000000000000000000008584612640565b612a18565b6040805163052f523360e11b81526001600160a01b038581166004830152878116602483015286811660448301526064820185905291517f000000000000000000000000000000000000000000000000000000000000000090921691630a5ea4669160848082019260009290919082900301818387803b1580156129ff57600080fd5b505af1158015612a13573d6000803e3d6000fd5b505050505b5050505050565b600080600080866001600160a01b03166336223ce96040518163ffffffff1660e01b8152600401604080518083038186803b158015612a5d57600080fd5b505afa158015612a71573d6000803e3d6000fd5b505050506040513d6040811015612a8757600080fd5b508051602090910151909250905080158015612aa1575081155b15612aad578593508492505b80158015612abb5750600082115b15612ac857859350600092505b600081118015612ad85750600082115b15612b27576000612ae98784612dbe565b90506000612af78784612dbe565b9050808211612b1457879550612b0d8383612def565b9450612b24565b869450612b218482612def565b95505b50505b5050935093915050565b60006060836001600160a01b0316836040518082805190602001908083835b60208310612b6f5780518252601f199092019160209182019101612b50565b6001836020036101000a0380198251168184511680821785525050505050509050019150506000604051808303816000865af19150503d8060008114612bd1576040519150601f19603f3d011682016040523d82523d6000602084013e612bd6565b606091505b509150915081612c2d576040805162461bcd60e51b815260206004820181905260248201527f5361666545524332303a206c6f772d6c6576656c2063616c6c206661696c6564604482015290519081900360640190fd5b80511561280557808060200190516020811015612c4957600080fd5b50516128055760405162461bcd60e51b815260040180806020018281038252602a815260200180612fd7602a913960400191505060405180910390fd5b6001600160a01b03811673eeeeeeeeeeeeeeeeeeeeeeeeeeeeeeeeeeeeeeee14919050565b801580612d31575060408051636eb1769f60e11b81523060048201526001600160a01b03848116602483015291519185169163dd62ed3e91604480820192602092909190829003018186803b158015612d0357600080fd5b505afa158015612d17573d6000803e3d6000fd5b505050506040513d6020811015612d2d57600080fd5b5051155b612d6c5760405162461bcd60e51b81526004018080602001828103825260368152602001806130016036913960400191505060405180910390fd5b604080516001600160a01b038416602482015260448082018490528251808303909101815260649091019091526020810180516001600160e01b031663095ea7b360e01b179052612692908490612b31565b6000612de882612ddc85670de0b6b3a764000063ffffffff612e1916565b9063ffffffff612e7416565b9392505050565b6000670de0b6b3a7640000612e0a848463ffffffff612e1916565b81612e1157fe5b049392505050565b600082612e285750600061263a565b82820282848281612e3557fe5b0414612de8576040805162461bcd60e51b815260206004820152600960248201526826aaa62fa2a92927a960b91b604482015290519081900360640190fd5b6000808211612ebb576040805162461bcd60e51b815260206004820152600e60248201526d2224ab24a224a723afa2a92927a960911b604482015290519081900360640190fd5b818381612e1157fefe92ceb067a9883c85aba061e46b9edf505a0d6e81927c4b966ebed543a5221787576f726c64657344766d50726f78793a204e6f742057686974656c69737420436f6e7472616374576f726c64657344766d50726f78793a2052657475726e20616d6f756e74206973206e6f7420656e6f756768576f726c64657344766d50726f78793a2045787465726e616c205377617020657865637574696f6e204661696c6564576f726c64657344766d50726f78793a2052455455524e5f414d4f554e545f5a45524f576f726c64657344766d50726f78793a206465706f73697420616d6f756e74206973206e6f7420656e6f756768576f726c64657344766d50726f78793a204558504952454400000000000000005361666545524332303a204552433230206f7065726174696f6e20646964206e6f7420737563636565645361666545524332303a20617070726f76652066726f6d206e6f6e2d7a65726f20746f206e6f6e2d7a65726f20616c6c6f77616e6365a2646970667358221220a48d6929f7c100343bb07855054b6777b392ee1be15b0a26fddfeca9ed523df864736f6c63430006090033",
  "linkReferences": {},
  "deployedLinkReferences": {}
}