{
  "_format": "hh-sol-artifact-1",
  "contractName": "WorldesMineProxy",
  "sourceName": "contracts/proxy/WorldesMineProxy.sol",
  "abi": [
    {
      "inputs": [
        {
          "internalType": "address",
          "name": "cloneFactory",
          "type": "address"
        },
        {
          "internalType": "address",
          "name": "mineTemplate",
          "type": "address"
        },
        {
          "internalType": "address",
          "name": "worldesApproveProxy",
          "type": "address"
        },
        {
          "internalType": "address",
          "name": "worldesMineRegistry",
          "type": "address"
        }
      ],
      "stateMutability": "nonpayable",
      "type": "constructor"
    },
    {
      "anonymous": false,
      "inputs": [
        {
          "indexed": false,
          "internalType": "address",
          "name": "mine",
          "type": "address"
        }
      ],
      "name": "ChangeMineTemplate",
      "type": "event"
    },
    {
      "anonymous": false,
      "inputs": [
        {
          "indexed": false,
          "internalType": "address",
          "name": "account",
          "type": "address"
        },
        {
          "indexed": false,
          "internalType": "address",
          "name": "mine",
          "type": "address"
        },
        {
          "indexed": false,
          "internalType": "address",
          "name": "stakeToken",
          "type": "address"
        },
        {
          "indexed": false,
          "internalType": "uint256",
          "name": "lockDuration",
          "type": "uint256"
        }
      ],
      "name": "CreateMine",
      "type": "event"
    },
    {
      "anonymous": false,
      "inputs": [
        {
          "indexed": false,
          "internalType": "address",
          "name": "mine",
          "type": "address"
        },
        {
          "indexed": false,
          "internalType": "address",
          "name": "rewardToken",
          "type": "address"
        },
        {
          "indexed": false,
          "internalType": "uint256",
          "name": "amount",
          "type": "uint256"
        }
      ],
      "name": "DepositRewardToMine",
      "type": "event"
    },
    {
      "anonymous": false,
      "inputs": [
        {
          "indexed": false,
          "internalType": "address",
          "name": "mine",
          "type": "address"
        },
        {
          "indexed": false,
          "internalType": "address",
          "name": "rewardToken",
          "type": "address"
        },
        {
          "indexed": false,
          "internalType": "uint256",
          "name": "amount",
          "type": "uint256"
        }
      ],
      "name": "DepositRewardToVault",
      "type": "event"
    },
    {
      "anonymous": false,
      "inputs": [
        {
          "indexed": true,
          "internalType": "address",
          "name": "previousOwner",
          "type": "address"
        },
        {
          "indexed": true,
          "internalType": "address",
          "name": "newOwner",
          "type": "address"
        }
      ],
      "name": "OwnershipTransferPrepared",
      "type": "event"
    },
    {
      "anonymous": false,
      "inputs": [
        {
          "indexed": true,
          "internalType": "address",
          "name": "previousOwner",
          "type": "address"
        },
        {
          "indexed": true,
          "internalType": "address",
          "name": "newOwner",
          "type": "address"
        }
      ],
      "name": "OwnershipTransferred",
      "type": "event"
    },
    {
      "inputs": [],
      "name": "_CLONE_FACTORY_",
      "outputs": [
        {
          "internalType": "address",
          "name": "",
          "type": "address"
        }
      ],
      "stateMutability": "view",
      "type": "function"
    },
    {
      "inputs": [],
      "name": "_MINE_TEMPLATE_",
      "outputs": [
        {
          "internalType": "address",
          "name": "",
          "type": "address"
        }
      ],
      "stateMutability": "view",
      "type": "function"
    },
    {
      "inputs": [],
      "name": "_NEW_OWNER_",
      "outputs": [
        {
          "internalType": "address",
          "name": "",
          "type": "address"
        }
      ],
      "stateMutability": "view",
      "type": "function"
    },
    {
      "inputs": [],
      "name": "_OWNER_",
      "outputs": [
        {
          "internalType": "address",
          "name": "",
          "type": "address"
        }
      ],
      "stateMutability": "view",
      "type": "function"
    },
    {
      "inputs": [],
      "name": "_WORLDES_APPROVE_PROXY_",
      "outputs": [
        {
          "internalType": "address",
          "name": "",
          "type": "address"
        }
      ],
      "stateMutability": "view",
      "type": "function"
    },
    {
      "inputs": [],
      "name": "_WORLDES_MINE_REGISTRY_",
      "outputs": [
        {
          "internalType": "address",
          "name": "",
          "type": "address"
        }
      ],
      "stateMutability": "view",
      "type": "function"
    },
    {
      "inputs": [],
      "name": "claimOwnership",
      "outputs": [],
      "stateMutability": "nonpayable",
      "type": "function"
    },
    {
      "inputs": [
        {
          "internalType": "address",
          "name": "stakeToken",
          "type": "address"
        },
        {
          "internalType": "bool",
          "name": "isLpToken",
          "type": "bool"
        },
        {
          "internalType": "uint256",
          "name": "lockDuration",
          "type": "uint256"
        },
        {
          "internalType": "address[]",
          "name": "rewardTokens",
          "type": "address[]"
        },
        {
          "internalType": "uint256[]",
          "name": "rewardPerSecond",
          "type": "uint256[]"
        },
        {
          "internalType": "uint256[]",
          "name": "startTime",
          "type": "uint256[]"
        },
        {
          "internalType": "uint256[]",
          "name": "endTime",
          "type": "uint256[]"
        }
      ],
      "name": "createWorldesMine",
      "outputs": [
        {
          "internalType": "address",
          "name": "newMine",
          "type": "address"
        }
      ],
      "stateMutability": "nonpayable",
      "type": "function"
    },
    {
      "inputs": [
        {
          "internalType": "address",
          "name": "mine",
          "type": "address"
        },
        {
          "internalType": "address",
          "name": "rewardToken",
          "type": "address"
        },
        {
          "internalType": "uint256",
          "name": "amount",
          "type": "uint256"
        }
      ],
      "name": "depositRewardToMine",
      "outputs": [],
      "stateMutability": "nonpayable",
      "type": "function"
    },
    {
      "inputs": [
        {
          "internalType": "address",
          "name": "mine",
          "type": "address"
        },
        {
          "internalType": "address",
          "name": "rewardToken",
          "type": "address"
        },
        {
          "internalType": "uint256",
          "name": "amount",
          "type": "uint256"
        }
      ],
      "name": "depositRewardToVault",
      "outputs": [],
      "stateMutability": "nonpayable",
      "type": "function"
    },
    {
      "inputs": [
        {
          "internalType": "address",
          "name": "newOwner",
          "type": "address"
        }
      ],
      "name": "initOwner",
      "outputs": [],
      "stateMutability": "nonpayable",
      "type": "function"
    },
    {
      "inputs": [
        {
          "internalType": "address",
          "name": "newOwner",
          "type": "address"
        }
      ],
      "name": "transferOwnership",
      "outputs": [],
      "stateMutability": "nonpayable",
      "type": "function"
    },
    {
      "inputs": [
        {
          "internalType": "address",
          "name": "_newMineTemplate",
          "type": "address"
        }
      ],
      "name": "updateMineTemplate",
      "outputs": [],
      "stateMutability": "nonpayable",
      "type": "function"
    },
    {
      "inputs": [],
      "name": "version",
      "outputs": [
        {
          "internalType": "string",
          "name": "",
          "type": "string"
        }
      ],
      "stateMutability": "pure",
      "type": "function"
    }
  ],
  "bytecode": "0x60e060405234801561001057600080fd5b50604051620011f1380380620011f183398101604081905261003191610097565b606093841b6001600160601b0319908116608052600280546001600160a01b0319166001600160a01b03959095169490941790935590831b821660a05290911b1660c0526100ee565b80516001600160a01b038116811461009157600080fd5b92915050565b600080600080608085870312156100ac578384fd5b6100b6868661007a565b93506100c5866020870161007a565b92506100d4866040870161007a565b91506100e3866060870161007a565b905092959194509250565b60805160601c60a05160601c60c05160601c6110b46200013d6000398061023152806106e3525080610264528061051d52806108425280610a0f5250806103bc5280610abe52506110b46000f3fe608060405234801561001057600080fd5b50600436106100ea5760003560e01c80638456db151161008c578063cf6954ce11610066578063cf6954ce14610190578063e17ff36114610198578063eb774d05146101ab578063f2fde38b146101b3576100ea565b80638456db15146101625780639cb297cd1461016a578063ae0aa0301461017d576100ea565b80634b23cca2116100c85780634b23cca21461012a5780634e71e0c81461013257806354fd4d501461013a5780636dbe43f11461014f576100ea565b80630d009297146100ef5780630fe947a21461010457806316048bc414610122575b600080fd5b6101026100fd366004610cc3565b6101c6565b005b61010c61022f565b6040516101199190610e10565b60405180910390f35b61010c610253565b61010c610262565b610102610286565b610142610314565b6040516101199190610ec2565b61010c61015d366004610d3b565b61033d565b61010c61079a565b610102610178366004610cfb565b6107a9565b61010261018b366004610cc3565b610943565b61010c6109c3565b6101026101a6366004610cfb565b6109d2565b61010c610abc565b6101026101c1366004610cc3565b610ae0565b600154600160a01b900460ff16156101f95760405162461bcd60e51b81526004016101f090610f3c565b60405180910390fd5b6001805460ff60a01b1916600160a01b179055600080546001600160a01b039092166001600160a01b0319909216919091179055565b7f000000000000000000000000000000000000000000000000000000000000000081565b6000546001600160a01b031681565b7f000000000000000000000000000000000000000000000000000000000000000081565b6001546001600160a01b031633146102b05760405162461bcd60e51b81526004016101f090610f15565b600154600080546040516001600160a01b0393841693909116917f8be0079c531659141344cd1fd0a4f28419497f9722a3daafe3b4186f6b6457e091a360018054600080546001600160a01b03199081166001600160a01b03841617909155169055565b60408051808201909152600f81526e4d696e6550726f787920302e302e3160881b602082015290565b600083518551146103605760405162461bcd60e51b81526004016101f090610f85565b83518351146103815760405162461bcd60e51b81526004016101f090610f85565b83518251146103a25760405162461bcd60e51b81526004016101f090610f85565b6002546040516340925bc760e11b81526001600160a01b037f0000000000000000000000000000000000000000000000000000000000000000811692638124b78e926103f5929190911690600401610e10565b602060405180830381600087803b15801561040f57600080fd5b505af1158015610423573d6000803e3d6000fd5b505050506040513d601f19601f820116820180604052508101906104479190610cdf565b6040516343431f6360e11b81529091506001600160a01b038216906386863ec69061047a9030908c908b90600401610e4e565b600060405180830381600087803b15801561049457600080fd5b505af11580156104a8573d6000803e3d6000fd5b506000925050505b855181101561066f5760006105196104f78684815181106104cd57fe5b60200260200101518685815181106104e157fe5b6020026020010151610b6590919063ffffffff16565b87848151811061050357fe5b6020026020010151610b9290919063ffffffff16565b90507f00000000000000000000000000000000000000000000000000000000000000006001600160a01b0316630a5ea46688848151811061055657fe5b60200260200101513386856040518563ffffffff1660e01b81526004016105809493929190610e24565b600060405180830381600087803b15801561059a57600080fd5b505af11580156105ae573d6000803e3d6000fd5b50505050826001600160a01b031663a7c3e4e58884815181106105cd57fe5b60200260200101518885815181106105e157fe5b60200260200101518886815181106105f557fe5b602002602001015188878151811061060957fe5b60200260200101516040518563ffffffff1660e01b81526004016106309493929190610e9c565b600060405180830381600087803b15801561064a57600080fd5b505af115801561065e573d6000803e3d6000fd5b5050600190930192506104b0915050565b50604051635ee9bee360e11b81526001600160a01b0382169063bdd37dc69061069c903390600401610e10565b600060405180830381600087803b1580156106b657600080fd5b505af11580156106ca573d6000803e3d6000fd5b5050604051632d9606fb60e11b81526001600160a01b037f0000000000000000000000000000000000000000000000000000000000000000169250635b2c0df691506107209084908b908d908c90600401610e72565b600060405180830381600087803b15801561073a57600080fd5b505af115801561074e573d6000803e3d6000fd5b505050507f9387c69fe336c8f99c93cf205d72aa6230e47822c4a7a61c583a9c2d2778927b33828a896040516107879493929190610e24565b60405180910390a1979650505050505050565b6001546001600160a01b031681565b60405163e513eb1560e01b81526000906001600160a01b0385169063e513eb15906107d8908690600401610e10565b60206040518083038186803b1580156107f057600080fd5b505afa158015610804573d6000803e3d6000fd5b505050506040513d601f19601f820116820180604052508101906108289190610cdf565b60405163052f523360e11b81529091506001600160a01b037f00000000000000000000000000000000000000000000000000000000000000001690630a5ea4669061087d908690339086908890600401610e24565b600060405180830381600087803b15801561089757600080fd5b505af11580156108ab573d6000803e3d6000fd5b50505050806001600160a01b031663ca1896ab6040518163ffffffff1660e01b8152600401600060405180830381600087803b1580156108ea57600080fd5b505af11580156108fe573d6000803e3d6000fd5b505050507ff222562df009371dbc94492bddff6e9f6ff435cfb999d5ce9684439db9cbb93684848460405161093593929190610e4e565b60405180910390a150505050565b6000546001600160a01b0316331461096d5760405162461bcd60e51b81526004016101f090610fb5565b600280546001600160a01b0319166001600160a01b0383161790556040517fcf5824f87b1b4b4181a59df3e184d69652c1f3896d2b5342f92731ec084c9518906109b8908390610e10565b60405180910390a150565b6002546001600160a01b031681565b6001600160a01b0383166109f85760405162461bcd60e51b81526004016101f090610fd8565b60405163052f523360e11b81526001600160a01b037f00000000000000000000000000000000000000000000000000000000000000001690630a5ea46690610a4a908590339088908790600401610e24565b600060405180830381600087803b158015610a6457600080fd5b505af1158015610a78573d6000803e3d6000fd5b505050507f7a506082d4953902efacb789163082daef78c65e6691afe805dd3985b181f645838383604051610aaf93929190610e4e565b60405180910390a1505050565b7f000000000000000000000000000000000000000000000000000000000000000081565b6000546001600160a01b03163314610b0a5760405162461bcd60e51b81526004016101f090610fb5565b600080546040516001600160a01b03808516939216917fdcf55418cee3220104fef63f979ff3c4097ad240c0c43dcb33ce837748983e6291a3600180546001600160a01b0319166001600160a01b0392909216919091179055565b600082821115610b875760405162461bcd60e51b81526004016101f090610f62565b508082035b92915050565b600082610ba157506000610b8c565b82820282848281610bae57fe5b0414610bcc5760405162461bcd60e51b81526004016101f090610ffc565b9392505050565b8035610b8c81611066565b600082601f830112610bee578081fd5b8135610c01610bfc82611046565b61101f565b818152915060208083019084810181840286018201871015610c2257600080fd5b60005b84811015610c4a578135610c3881611066565b84529282019290820190600101610c25565b505050505092915050565b600082601f830112610c65578081fd5b8135610c73610bfc82611046565b818152915060208083019084810181840286018201871015610c9457600080fd5b60005b84811015610c4a57813584529282019290820190600101610c97565b80358015158114610b8c57600080fd5b600060208284031215610cd4578081fd5b8135610bcc81611066565b600060208284031215610cf0578081fd5b8151610bcc81611066565b600080600060608486031215610d0f578182fd5b8335610d1a81611066565b92506020840135610d2a81611066565b929592945050506040919091013590565b600080600080600080600060e0888a031215610d55578283fd5b610d5f8989610bd3565b9650610d6e8960208a01610cb3565b955060408801359450606088013567ffffffffffffffff80821115610d91578485fd5b610d9d8b838c01610bde565b955060808a0135915080821115610db2578485fd5b610dbe8b838c01610c55565b945060a08a0135915080821115610dd3578384fd5b610ddf8b838c01610c55565b935060c08a0135915080821115610df4578283fd5b50610e018a828b01610c55565b91505092959891949750929550565b6001600160a01b0391909116815260200190565b6001600160a01b039485168152928416602084015292166040820152606081019190915260800190565b6001600160a01b039384168152919092166020820152604081019190915260600190565b6001600160a01b039485168152921515602084015292166040820152606081019190915260800190565b6001600160a01b0394909416845260208401929092526040830152606082015260800190565b6000602080835283518082850152825b81811015610eee57858101830151858201604001528201610ed2565b81811115610eff5783604083870101525b50601f01601f1916929092016040019392505050565b6020808252600d908201526c494e56414c49445f434c41494d60981b604082015260600190565b6020808252600c908201526b17d25392551250531256915160a21b604082015260600190565b60208082526009908201526829aaa12fa2a92927a960b91b604082015260600190565b6020808252601690820152750a48aae82a488bea082a4829abe9c9ea8be9a82a886960531b604082015260600190565b6020808252600990820152682727aa2fa7aba722a960b91b604082015260600190565b6020808252600a90820152694d494e455f454d50545960b01b604082015260600190565b60208082526009908201526826aaa62fa2a92927a960b91b604082015260600190565b60405181810167ffffffffffffffff8111828210171561103e57600080fd5b604052919050565b600067ffffffffffffffff82111561105c578081fd5b5060209081020190565b6001600160a01b038116811461107b57600080fd5b5056fea2646970667358221220aa05e363c189aa87d9103dfa7e5d55031946d0be1282867ad3c02d04d34c1e3364736f6c63430006090033",
  "linkReferences": {},
  "deployedLinkReferences": {}
}