{
  "address": "0x610178dA211FEF7D417bC0e6FeD39F05609AD788",
  "abi": [
    {
      "inputs": [
        {
          "internalType": "address",
          "name": "prototype",
          "type": "address"
        }
      ],
      "name": "clone",
      "outputs": [
        {
          "internalType": "address",
          "name": "proxy",
          "type": "address"
        }
      ],
      "stateMutability": "nonpayable",
      "type": "function"
    }
  ],
  "transactionHash": "0xfe4913305d0f52c12837b29d8461b1265c5fe59f281ad1d5e679c5f2c21087c4",
  "args": [],
  "numDeployments": 1,
  "solcInputHash": "2bc52c20de8a37fa339f3a7b69b4b897",
  "bytecode": "0x608060405234801561001057600080fd5b50610118806100206000396000f3fe6080604052348015600f57600080fd5b506004361060285760003560e01c80638124b78e14602d575b600080fd5b603c603836600460a2565b6050565b6040516047919060ce565b60405180910390f35b6000808260601b9050604051733d602d80600a3d3981f3363d3d373d3d3d363d7360601b81528160148201526e5af43d82803e903d91602b57fd5bf360881b60288201526037816000f0949350505050565b60006020828403121560b2578081fd5b81356001600160a01b038116811460c7578182fd5b9392505050565b6001600160a01b039190911681526020019056fea2646970667358221220ecbf863d747ecf672e4daa2d91bfe902108f9153c63d212dc7a5484b641e8a8064736f6c63430006090033",
  "devdoc": {
    "methods": {}
  },
  "userdoc": {
    "methods": {}
  },
  "storageLayout": {
    "storage": [],
    "types": null
  }
}