{
  "address": "0x9A676e781A523b5d0C0e43731313A708CB607508",
  "abi": [
    {
      "anonymous": false,
      "inputs": [
        {
          "indexed": true,
          "internalType": "address",
          "name": "previousOwner",
          "type": "address"
        },
        {
          "indexed": true,
          "internalType": "address",
          "name": "newOwner",
          "type": "address"
        }
      ],
      "name": "OwnershipTransferPrepared",
      "type": "event"
    },
    {
      "anonymous": false,
      "inputs": [
        {
          "indexed": true,
          "internalType": "address",
          "name": "previousOwner",
          "type": "address"
        },
        {
          "indexed": true,
          "internalType": "address",
          "name": "newOwner",
          "type": "address"
        }
      ],
      "name": "OwnershipTransferred",
      "type": "event"
    },
    {
      "anonymous": false,
      "inputs": [
        {
          "indexed": true,
          "internalType": "address",
          "name": "oldProxy",
          "type": "address"
        },
        {
          "indexed": true,
          "internalType": "address",
          "name": "newProxy",
          "type": "address"
        }
      ],
      "name": "SetWorldesProxy",
      "type": "event"
    },
    {
      "inputs": [],
      "name": "_NEW_OWNER_",
      "outputs": [
        {
          "internalType": "address",
          "name": "",
          "type": "address"
        }
      ],
      "stateMutability": "view",
      "type": "function"
    },
    {
      "inputs": [],
      "name": "_OWNER_",
      "outputs": [
        {
          "internalType": "address",
          "name": "",
          "type": "address"
        }
      ],
      "stateMutability": "view",
      "type": "function"
    },
    {
      "inputs": [],
      "name": "_PENDING_WORLDES_PROXY_",
      "outputs": [
        {
          "internalType": "address",
          "name": "",
          "type": "address"
        }
      ],
      "stateMutability": "view",
      "type": "function"
    },
    {
      "inputs": [],
      "name": "_TIMELOCK_",
      "outputs": [
        {
          "internalType": "uint256",
          "name": "",
          "type": "uint256"
        }
      ],
      "stateMutability": "view",
      "type": "function"
    },
    {
      "inputs": [],
      "name": "_WORLDES_PROXY_",
      "outputs": [
        {
          "internalType": "address",
          "name": "",
          "type": "address"
        }
      ],
      "stateMutability": "view",
      "type": "function"
    },
    {
      "inputs": [],
      "name": "claimOwnership",
      "outputs": [],
      "stateMutability": "nonpayable",
      "type": "function"
    },
    {
      "inputs": [
        {
          "internalType": "address",
          "name": "token",
          "type": "address"
        },
        {
          "internalType": "address",
          "name": "who",
          "type": "address"
        },
        {
          "internalType": "address",
          "name": "dest",
          "type": "address"
        },
        {
          "internalType": "uint256",
          "name": "amount",
          "type": "uint256"
        }
      ],
      "name": "claimTokens",
      "outputs": [],
      "stateMutability": "nonpayable",
      "type": "function"
    },
    {
      "inputs": [],
      "name": "getWorldesProxy",
      "outputs": [
        {
          "internalType": "address",
          "name": "",
          "type": "address"
        }
      ],
      "stateMutability": "view",
      "type": "function"
    },
    {
      "inputs": [
        {
          "internalType": "address",
          "name": "owner",
          "type": "address"
        },
        {
          "internalType": "address",
          "name": "initProxyAddress",
          "type": "address"
        }
      ],
      "name": "init",
      "outputs": [],
      "stateMutability": "nonpayable",
      "type": "function"
    },
    {
      "inputs": [
        {
          "internalType": "address",
          "name": "newOwner",
          "type": "address"
        }
      ],
      "name": "initOwner",
      "outputs": [],
      "stateMutability": "nonpayable",
      "type": "function"
    },
    {
      "inputs": [],
      "name": "lockSetProxy",
      "outputs": [],
      "stateMutability": "nonpayable",
      "type": "function"
    },
    {
      "inputs": [],
      "name": "setWorldesProxy",
      "outputs": [],
      "stateMutability": "nonpayable",
      "type": "function"
    },
    {
      "inputs": [
        {
          "internalType": "address",
          "name": "newOwner",
          "type": "address"
        }
      ],
      "name": "transferOwnership",
      "outputs": [],
      "stateMutability": "nonpayable",
      "type": "function"
    },
    {
      "inputs": [
        {
          "internalType": "address",
          "name": "newSwapProxy",
          "type": "address"
        }
      ],
      "name": "unlockSetProxy",
      "outputs": [],
      "stateMutability": "nonpayable",
      "type": "function"
    }
  ],
  "transactionHash": "0xec449e376ba7e4452e2f97a4cfd2094ccd302aaf4cf1504797d828b287bd13a5",
  "args": [],
  "numDeployments": 1,
  "solcInputHash": "2bc52c20de8a37fa339f3a7b69b4b897",
  "bytecode": "0x608060405234801561001057600080fd5b5061092a806100206000396000f3fe608060405234801561001057600080fd5b50600436106100ea5760003560e01c80634e71e0c81161008c578063b75dbf6811610066578063b75dbf68146101cd578063f09a4016146101e7578063f2fde38b14610215578063fccec6401461023b576100ea565b80634e71e0c8146101b55780634f3cef84146101bd5780638456db15146101c5576100ea565b806316048bc4116100c857806316048bc4146101775780631cbc6b151461017f57806341c256c1146101875780634da42b50146101ad576100ea565b80630a5ea466146100ef5780630d0092971461012d57806312c0de6314610153575b600080fd5b61012b6004803603608081101561010557600080fd5b506001600160a01b03813581169160208101358216916040820135169060600135610243565b005b61012b6004803603602081101561014357600080fd5b50356001600160a01b03166102c9565b61015b61034d565b604080516001600160a01b039092168252519081900360200190f35b61015b61035c565b61012b61036b565b61012b6004803603602081101561019d57600080fd5b50356001600160a01b0316610471565b61015b610506565b61012b610515565b61012b6105c8565b61015b61062a565b6101d5610639565b60408051918252519081900360200190f35b61012b600480360360408110156101fd57600080fd5b506001600160a01b038135811691602001351661063f565b61012b6004803603602081101561022b57600080fd5b50356001600160a01b031661066b565b61015b610711565b6004546001600160a01b031633146102a2576040805162461bcd60e51b815260206004820181905260248201527f576f726c646573417070726f76653a4163636573732072657374726963746564604482015290519081900360640190fd5b80156102c3576102c36001600160a01b03851684848463ffffffff61072016565b50505050565b600154600160a01b900460ff1615610317576040805162461bcd60e51b815260206004820152600c60248201526b17d25392551250531256915160a21b604482015290519081900360640190fd5b6001805460ff60a01b1916600160a01b179055600080546001600160a01b039092166001600160a01b0319909216919091179055565b6003546001600160a01b031681565b6000546001600160a01b031681565b6000546001600160a01b031633146103b6576040805162461bcd60e51b81526020600482015260096024820152682727aa2fa7aba722a960b91b604482015290519081900360640190fd5b426002541115610406576040805162461bcd60e51b815260206004820152601660248201527514d95d141c9bde1e481a5cc81d1a5b595b1bd8dad95960521b604482015290519081900360640190fd5b6003546004546040516001600160a01b0392831692909116907fd48934879a3f064e47357b1b7751ee296e085fa4c659b742837bc8138b2e704090600090a3600354600480546001600160a01b0319166001600160a01b0390921691909117905561046f6105c8565b565b6000546001600160a01b031633146104bc576040805162461bcd60e51b81526020600482015260096024820152682727aa2fa7aba722a960b91b604482015290519081900360640190fd5b6004546001600160a01b03166104da574262015180016002556104e4565b426203f480016002555b600380546001600160a01b0319166001600160a01b0392909216919091179055565b6004546001600160a01b031681565b6001546001600160a01b03163314610564576040805162461bcd60e51b815260206004820152600d60248201526c494e56414c49445f434c41494d60981b604482015290519081900360640190fd5b600154600080546040516001600160a01b0393841693909116917f8be0079c531659141344cd1fd0a4f28419497f9722a3daafe3b4186f6b6457e091a360018054600080546001600160a01b03199081166001600160a01b03841617909155169055565b6000546001600160a01b03163314610613576040805162461bcd60e51b81526020600482015260096024820152682727aa2fa7aba722a960b91b604482015290519081900360640190fd5b600380546001600160a01b03191690556000600255565b6001546001600160a01b031681565b60025481565b610648826102c9565b600480546001600160a01b0319166001600160a01b039290921691909117905550565b6000546001600160a01b031633146106b6576040805162461bcd60e51b81526020600482015260096024820152682727aa2fa7aba722a960b91b604482015290519081900360640190fd5b600080546040516001600160a01b03808516939216917fdcf55418cee3220104fef63f979ff3c4097ad240c0c43dcb33ce837748983e6291a3600180546001600160a01b0319166001600160a01b0392909216919091179055565b6004546001600160a01b031690565b604080516001600160a01b0380861660248301528416604482015260648082018490528251808303909101815260849091019091526020810180516001600160e01b03166323b872dd60e01b1790526102c390859060006060836001600160a01b0316836040518082805190602001908083835b602083106107b35780518252601f199092019160209182019101610794565b6001836020036101000a0380198251168184511680821785525050505050509050019150506000604051808303816000865af19150503d8060008114610815576040519150601f19603f3d011682016040523d82523d6000602084013e61081a565b606091505b509150915081610871576040805162461bcd60e51b815260206004820181905260248201527f5361666545524332303a206c6f772d6c6576656c2063616c6c206661696c6564604482015290519081900360640190fd5b8051156102c35780806020019051602081101561088d57600080fd5b50516102c35760405162461bcd60e51b815260040180806020018281038252602a8152602001806108cb602a913960400191505060405180910390fdfe5361666545524332303a204552433230206f7065726174696f6e20646964206e6f742073756363656564a26469706673582212200ce2832ce75aa90cc077cdbd04f96eba72b25d80bcba17a6cf72da3b5b852bfc64736f6c63430006090033",
  "devdoc": {
    "methods": {},
    "title": "WorldesApprove"
  },
  "userdoc": {
    "methods": {},
    "notice": "Handle authorizations in Worldes platform"
  },
  "storageLayout": {
    "storage": [
      {
        "astId": 2160,
        "contract": "contracts/proxy/WorldesApprove.sol:WorldesApprove",
        "label": "_OWNER_",
        "offset": 0,
        "slot": "0",
        "type": "t_address"
      },
      {
        "astId": 2162,
        "contract": "contracts/proxy/WorldesApprove.sol:WorldesApprove",
        "label": "_NEW_OWNER_",
        "offset": 0,
        "slot": "1",
        "type": "t_address"
      },
      {
        "astId": 2164,
        "contract": "contracts/proxy/WorldesApprove.sol:WorldesApprove",
        "label": "_INITIALIZED_",
        "offset": 20,
        "slot": "1",
        "type": "t_bool"
      },
      {
        "astId": 3903,
        "contract": "contracts/proxy/WorldesApprove.sol:WorldesApprove",
        "label": "_TIMELOCK_",
        "offset": 0,
        "slot": "2",
        "type": "t_uint256"
      },
      {
        "astId": 3905,
        "contract": "contracts/proxy/WorldesApprove.sol:WorldesApprove",
        "label": "_PENDING_WORLDES_PROXY_",
        "offset": 0,
        "slot": "3",
        "type": "t_address"
      },
      {
        "astId": 3907,
        "contract": "contracts/proxy/WorldesApprove.sol:WorldesApprove",
        "label": "_WORLDES_PROXY_",
        "offset": 0,
        "slot": "4",
        "type": "t_address"
      }
    ],
    "types": {
      "t_address": {
        "encoding": "inplace",
        "label": "address",
        "numberOfBytes": "20"
      },
      "t_bool": {
        "encoding": "inplace",
        "label": "bool",
        "numberOfBytes": "1"
      },
      "t_uint256": {
        "encoding": "inplace",
        "label": "uint256",
        "numberOfBytes": "32"
      }
    }
  }
}