{
  "address": "0x3Aa5ebB10DC797CAC828524e59A333d0A371443c",
  "abi": [
    {
      "inputs": [
        {
          "internalType": "address",
          "name": "dspFactory",
          "type": "address"
        },
        {
          "internalType": "address payable",
          "name": "weth",
          "type": "address"
        },
        {
          "internalType": "address",
          "name": "worldesApproveProxy",
          "type": "address"
        }
      ],
      "stateMutability": "nonpayable",
      "type": "constructor"
    },
    {
      "stateMutability": "payable",
      "type": "fallback"
    },
    {
      "inputs": [],
      "name": "_DSP_FACTORY_",
      "outputs": [
        {
          "internalType": "address",
          "name": "",
          "type": "address"
        }
      ],
      "stateMutability": "view",
      "type": "function"
    },
    {
      "inputs": [],
      "name": "_WETH_",
      "outputs": [
        {
          "internalType": "address",
          "name": "",
          "type": "address"
        }
      ],
      "stateMutability": "view",
      "type": "function"
    },
    {
      "inputs": [],
      "name": "_WORLDES_APPROVE_PROXY_",
      "outputs": [
        {
          "internalType": "address",
          "name": "",
          "type": "address"
        }
      ],
      "stateMutability": "view",
      "type": "function"
    },
    {
      "inputs": [
        {
          "internalType": "address",
          "name": "dspAddress",
          "type": "address"
        },
        {
          "internalType": "uint256",
          "name": "baseInAmount",
          "type": "uint256"
        },
        {
          "internalType": "uint256",
          "name": "quoteInAmount",
          "type": "uint256"
        },
        {
          "internalType": "uint256",
          "name": "baseMinAmount",
          "type": "uint256"
        },
        {
          "internalType": "uint256",
          "name": "quoteMinAmount",
          "type": "uint256"
        },
        {
          "internalType": "uint8",
          "name": "flag",
          "type": "uint8"
        },
        {
          "internalType": "uint256",
          "name": "deadLine",
          "type": "uint256"
        }
      ],
      "name": "addDSPLiquidity",
      "outputs": [
        {
          "internalType": "uint256",
          "name": "shares",
          "type": "uint256"
        },
        {
          "internalType": "uint256",
          "name": "baseAdjustedInAmount",
          "type": "uint256"
        },
        {
          "internalType": "uint256",
          "name": "quoteAdjustedInAmount",
          "type": "uint256"
        }
      ],
      "stateMutability": "payable",
      "type": "function"
    },
    {
      "inputs": [
        {
          "internalType": "address",
          "name": "baseToken",
          "type": "address"
        },
        {
          "internalType": "address",
          "name": "quoteToken",
          "type": "address"
        },
        {
          "internalType": "uint256",
          "name": "baseInAmount",
          "type": "uint256"
        },
        {
          "internalType": "uint256",
          "name": "quoteInAmount",
          "type": "uint256"
        },
        {
          "internalType": "uint256",
          "name": "lpFeeRate",
          "type": "uint256"
        },
        {
          "internalType": "uint256",
          "name": "i",
          "type": "uint256"
        },
        {
          "internalType": "uint256",
          "name": "k",
          "type": "uint256"
        },
        {
          "internalType": "bool",
          "name": "isOpenTWAP",
          "type": "bool"
        },
        {
          "internalType": "uint256",
          "name": "deadLine",
          "type": "uint256"
        }
      ],
      "name": "createStablePair",
      "outputs": [
        {
          "internalType": "address",
          "name": "newStablePair",
          "type": "address"
        },
        {
          "internalType": "uint256",
          "name": "shares",
          "type": "uint256"
        }
      ],
      "stateMutability": "payable",
      "type": "function"
    },
    {
      "stateMutability": "payable",
      "type": "receive"
    }
  ],
  "transactionHash": "0xe27898c9d94d278ae4d3b4eb7ad5520b602fbdc726bec2e3ea3847f1de702d4f",
  "args": [
    "0x68B1D87F95878fE05B998F19b66F4baba5De1aed",
    "0x5FbDB2315678afecb367f032d93F642f64180aa3",
    "0x0B306BF915C4d645ff596e518fAf3F9669b97016"
  ],
  "numDeployments": 1,
  "solcInputHash": "2bc52c20de8a37fa339f3a7b69b4b897",
  "bytecode": "0x60e060405234801561001057600080fd5b50604051610f03380380610f038339818101604052606081101561003357600080fd5b50805160208201516040909201516001600160601b0319606092831b811660c05292821b8316608052901b1660a05260805160601c60a05160601c60c05160601c610e4e6100b56000398061037352806107f25250806101c4528061090e5250806101a052806102b95280610309528061082252806108aa5250610e4e6000f3fe60806040526004361061004e5760003560e01c80630d4eec8f146100575780634b23cca2146100885780635a993ded1461009d578063e24db1ac1461011e578063fc3824371461018957610055565b3661005557005b005b34801561006357600080fd5b5061006c61019e565b604080516001600160a01b039092168252519081900360200190f35b34801561009457600080fd5b5061006c6101c2565b6100fb60048036036101208110156100b457600080fd5b506001600160a01b03813581169160208101359091169060408101359060608101359060808101359060a08101359060c08101359060e081013515159061010001356101e6565b604080516001600160a01b03909316835260208301919091528051918290030190f35b61016b600480360360e081101561013457600080fd5b506001600160a01b038135169060208101359060408101359060608101359060808101359060ff60a0820135169060c001356104dd565b60408051938452602084019290925282820152519081900360600190f35b34801561019557600080fd5b5061006c6107f0565b7f000000000000000000000000000000000000000000000000000000000000000081565b7f000000000000000000000000000000000000000000000000000000000000000081565b60008054819060ff161561022d576040805162461bcd60e51b815260206004820152600960248201526814915153951490539560ba1b604482015290519081900360640190fd5b6000805460ff19166001179055824281101561028b576040805162461bcd60e51b815260206004820152601860248201527715dbdc9b19195cd11cdc141c9bde1e4e881156141254915160421b604482015290519081900360640190fd5b60006001600160a01b038d1673eeeeeeeeeeeeeeeeeeeeeeeeeeeeeeeeeeeeeeee146102b7578c6102d9565b7f00000000000000000000000000000000000000000000000000000000000000005b905060006001600160a01b038d1673eeeeeeeeeeeeeeeeeeeeeeeeeeeeeeeeeeeeeeee14610307578c610329565b7f00000000000000000000000000000000000000000000000000000000000000005b60408051634d29ca8360e11b81526001600160a01b0385811660048301528381166024830152604482018e9052606482018d9052608482018c90528a151560a483015291519293507f000000000000000000000000000000000000000000000000000000000000000090911691639a5395069160c4808201926020929091908290030181600087803b1580156103be57600080fd5b505af11580156103d2573d6000803e3d6000fd5b505050506040513d60208110156103e857600080fd5b505194508d91508c905061041e3386848f6001600160a01b03821673eeeeeeeeeeeeeeeeeeeeeeeeeeeeeeeeeeeeeeee14610814565b61044a3386838e6001600160a01b03821673eeeeeeeeeeeeeeeeeeeeeeeeeeeeeeeeeeeeeeee14610814565b505060408051634c85b42560e01b815233600482015290516001600160a01b03851691634c85b4259160248083019260609291908290030181600087803b15801561049457600080fd5b505af11580156104a8573d6000803e3d6000fd5b505050506040513d60608110156104be57600080fd5b50516000805460ff19169055929c929b50919950505050505050505050565b600080548190819060ff1615610526576040805162461bcd60e51b815260206004820152600960248201526814915153951490539560ba1b604482015290519081900360640190fd5b6000805460ff191660011790558342811015610584576040805162461bcd60e51b815260206004820152601860248201527715dbdc9b19195cd11cdc141c9bde1e4e881156141254915160421b604482015290519081900360640190fd5b8a610590818c8c610978565b90945092508884108015906105a55750878310155b6105e05760405162461bcd60e51b815260040180806020018281038252602d815260200180610dc2602d913960400191505060405180910390fd5b6106573382836001600160a01b0316634a248d2a6040518163ffffffff1660e01b815260040160206040518083038186803b15801561061e57600080fd5b505afa158015610632573d6000803e3d6000fd5b505050506040513d602081101561064857600080fd5b505187600160ff8d1614610814565b6106ce3382836001600160a01b031663d4b970466040518163ffffffff1660e01b815260040160206040518083038186803b15801561069557600080fd5b505afa1580156106a9573d6000803e3d6000fd5b505050506040513d60208110156106bf57600080fd5b505186600260ff8d1614610814565b60408051634c85b42560e01b815233600482015290516001600160a01b03831691634c85b4259160248083019260609291908290030181600087803b15801561071657600080fd5b505af115801561072a573d6000803e3d6000fd5b505050506040513d606081101561074057600080fd5b50519450600160ff881614801561075657508334115b1561078c5760405133903486900380156108fc02916000818181858888f1935050505015801561078a573d6000803e3d6000fd5b505b8660ff16600214801561079e57508234115b156107d45760405133903485900380156108fc02916000818181858888f193505050501580156107d2573d6000803e3d6000fd5b505b50506000805460ff191690559199909850909650945050505050565b7f000000000000000000000000000000000000000000000000000000000000000081565b80156108d55781156108d0577f00000000000000000000000000000000000000000000000000000000000000006001600160a01b031663d0e30db0836040518263ffffffff1660e01b81526004016000604051808303818588803b15801561087b57600080fd5b505af115801561088f573d6000803e3d6000fd5b505050506001600160a01b038516301490506108d0576108d07f00000000000000000000000000000000000000000000000000000000000000008584610b07565b610971565b6040805163052f523360e11b81526001600160a01b038581166004830152878116602483015286811660448301526064820185905291517f000000000000000000000000000000000000000000000000000000000000000090921691630a5ea4669160848082019260009290919082900301818387803b15801561095857600080fd5b505af115801561096c573d6000803e3d6000fd5b505050505b5050505050565b600080600080866001600160a01b03166336223ce96040518163ffffffff1660e01b8152600401604080518083038186803b1580156109b657600080fd5b505afa1580156109ca573d6000803e3d6000fd5b505050506040513d60408110156109e057600080fd5b5080516020909101519092509050801580156109fa575081155b15610a9e576000876001600160a01b031663f811d6926040518163ffffffff1660e01b815260040160206040518083038186803b158015610a3a57600080fd5b505afa158015610a4e573d6000803e3d6000fd5b505050506040513d6020811015610a6457600080fd5b505190506000610a748883610b5e565b8710610a805787610a8a565b610a8a8783610b8a565b9050809550610a998183610b5e565b945050505b600081118015610aae5750600082115b15610afd576000610abf8784610b8a565b90506000610acd8784610b8a565b9050808211610aea57879550610ae38383610b5e565b9450610afa565b869450610af78482610b5e565b95505b50505b5050935093915050565b604080516001600160a01b038416602482015260448082018490528251808303909101815260649091019091526020810180516001600160e01b031663a9059cbb60e01b179052610b59908490610bbb565b505050565b6000670de0b6b3a7640000610b79848463ffffffff610d1616565b81610b8057fe5b0490505b92915050565b6000610bb482610ba885670de0b6b3a764000063ffffffff610d1616565b9063ffffffff610d7116565b9392505050565b60006060836001600160a01b0316836040518082805190602001908083835b60208310610bf95780518252601f199092019160209182019101610bda565b6001836020036101000a0380198251168184511680821785525050505050509050019150506000604051808303816000865af19150503d8060008114610c5b576040519150601f19603f3d011682016040523d82523d6000602084013e610c60565b606091505b509150915081610cb7576040805162461bcd60e51b815260206004820181905260248201527f5361666545524332303a206c6f772d6c6576656c2063616c6c206661696c6564604482015290519081900360640190fd5b805115610d1057808060200190516020811015610cd357600080fd5b5051610d105760405162461bcd60e51b815260040180806020018281038252602a815260200180610def602a913960400191505060405180910390fd5b50505050565b600082610d2557506000610b84565b82820282848281610d3257fe5b0414610bb4576040805162461bcd60e51b815260206004820152600960248201526826aaa62fa2a92927a960b91b604482015290519081900360640190fd5b6000808211610db8576040805162461bcd60e51b815260206004820152600e60248201526d2224ab24a224a723afa2a92927a960911b604482015290519081900360640190fd5b818381610b8057fefe576f726c64657344737050726f78793a206465706f73697420616d6f756e74206973206e6f7420656e6f7567685361666545524332303a204552433230206f7065726174696f6e20646964206e6f742073756363656564a26469706673582212202329ee8079746b9a9e2d21a2cf7b7187a4033797e5773a603c06180142d0f7f664736f6c63430006090033",
  "devdoc": {
    "methods": {},
    "title": "WorldesDspProxy"
  },
  "userdoc": {
    "methods": {},
    "notice": "Entrance of Worldes Stable Pair in Worldes platform"
  },
  "storageLayout": {
    "storage": [
      {
        "astId": 2873,
        "contract": "contracts/proxy/WorldesDspProxy.sol:WorldesDspProxy",
        "label": "_ENTERED_",
        "offset": 0,
        "slot": "0",
        "type": "t_bool"
      }
    ],
    "types": {
      "t_bool": {
        "encoding": "inplace",
        "label": "bool",
        "numberOfBytes": "1"
      }
    }
  }
}