{
  "address": "0x4086136aAaF28491439081579C5eE4c77A237B8f",
  "abi": [
    {
      "inputs": [
        {
          "internalType": "address",
          "name": "cloneFactory",
          "type": "address"
        },
        {
          "internalType": "address",
          "name": "dvmTemplate",
          "type": "address"
        },
        {
          "internalType": "address",
          "name": "defaultMaintainer",
          "type": "address"
        },
        {
          "internalType": "address",
          "name": "defaultMtFeeRateModel",
          "type": "address"
        }
      ],
      "stateMutability": "nonpayable",
      "type": "constructor"
    },
    {
      "anonymous": false,
      "inputs": [
        {
          "indexed": false,
          "internalType": "address",
          "name": "baseToken",
          "type": "address"
        },
        {
          "indexed": false,
          "internalType": "address",
          "name": "quoteToken",
          "type": "address"
        },
        {
          "indexed": false,
          "internalType": "address",
          "name": "creator",
          "type": "address"
        },
        {
          "indexed": false,
          "internalType": "address",
          "name": "dvm",
          "type": "address"
        }
      ],
      "name": "NewDVM",
      "type": "event"
    },
    {
      "anonymous": false,
      "inputs": [
        {
          "indexed": true,
          "internalType": "address",
          "name": "previousOwner",
          "type": "address"
        },
        {
          "indexed": true,
          "internalType": "address",
          "name": "newOwner",
          "type": "address"
        }
      ],
      "name": "OwnershipTransferPrepared",
      "type": "event"
    },
    {
      "anonymous": false,
      "inputs": [
        {
          "indexed": true,
          "internalType": "address",
          "name": "previousOwner",
          "type": "address"
        },
        {
          "indexed": true,
          "internalType": "address",
          "name": "newOwner",
          "type": "address"
        }
      ],
      "name": "OwnershipTransferred",
      "type": "event"
    },
    {
      "anonymous": false,
      "inputs": [
        {
          "indexed": false,
          "internalType": "address",
          "name": "dvm",
          "type": "address"
        }
      ],
      "name": "RemoveDVM",
      "type": "event"
    },
    {
      "inputs": [],
      "name": "_CLONE_FACTORY_",
      "outputs": [
        {
          "internalType": "address",
          "name": "",
          "type": "address"
        }
      ],
      "stateMutability": "view",
      "type": "function"
    },
    {
      "inputs": [],
      "name": "_DEFAULT_MAINTAINER_",
      "outputs": [
        {
          "internalType": "address",
          "name": "",
          "type": "address"
        }
      ],
      "stateMutability": "view",
      "type": "function"
    },
    {
      "inputs": [],
      "name": "_DEFAULT_MT_FEE_RATE_MODEL_",
      "outputs": [
        {
          "internalType": "address",
          "name": "",
          "type": "address"
        }
      ],
      "stateMutability": "view",
      "type": "function"
    },
    {
      "inputs": [],
      "name": "_DVM_TEMPLATE_",
      "outputs": [
        {
          "internalType": "address",
          "name": "",
          "type": "address"
        }
      ],
      "stateMutability": "view",
      "type": "function"
    },
    {
      "inputs": [],
      "name": "_NEW_OWNER_",
      "outputs": [
        {
          "internalType": "address",
          "name": "",
          "type": "address"
        }
      ],
      "stateMutability": "view",
      "type": "function"
    },
    {
      "inputs": [],
      "name": "_OWNER_",
      "outputs": [
        {
          "internalType": "address",
          "name": "",
          "type": "address"
        }
      ],
      "stateMutability": "view",
      "type": "function"
    },
    {
      "inputs": [
        {
          "internalType": "address",
          "name": "",
          "type": "address"
        },
        {
          "internalType": "address",
          "name": "",
          "type": "address"
        },
        {
          "internalType": "uint256",
          "name": "",
          "type": "uint256"
        }
      ],
      "name": "_REGISTRY_",
      "outputs": [
        {
          "internalType": "address",
          "name": "",
          "type": "address"
        }
      ],
      "stateMutability": "view",
      "type": "function"
    },
    {
      "inputs": [
        {
          "internalType": "address",
          "name": "",
          "type": "address"
        },
        {
          "internalType": "uint256",
          "name": "",
          "type": "uint256"
        }
      ],
      "name": "_USER_REGISTRY_",
      "outputs": [
        {
          "internalType": "address",
          "name": "",
          "type": "address"
        }
      ],
      "stateMutability": "view",
      "type": "function"
    },
    {
      "inputs": [
        {
          "internalType": "address",
          "name": "creator",
          "type": "address"
        },
        {
          "internalType": "address",
          "name": "baseToken",
          "type": "address"
        },
        {
          "internalType": "address",
          "name": "quoteToken",
          "type": "address"
        },
        {
          "internalType": "address",
          "name": "pool",
          "type": "address"
        }
      ],
      "name": "addPoolByAdmin",
      "outputs": [],
      "stateMutability": "nonpayable",
      "type": "function"
    },
    {
      "inputs": [],
      "name": "claimOwnership",
      "outputs": [],
      "stateMutability": "nonpayable",
      "type": "function"
    },
    {
      "inputs": [
        {
          "internalType": "address",
          "name": "baseToken",
          "type": "address"
        },
        {
          "internalType": "address",
          "name": "quoteToken",
          "type": "address"
        },
        {
          "internalType": "uint256",
          "name": "lpFeeRate",
          "type": "uint256"
        },
        {
          "internalType": "uint256",
          "name": "i",
          "type": "uint256"
        },
        {
          "internalType": "uint256",
          "name": "k",
          "type": "uint256"
        },
        {
          "internalType": "bool",
          "name": "isOpenTWAP",
          "type": "bool"
        }
      ],
      "name": "createVendingMachine",
      "outputs": [
        {
          "internalType": "address",
          "name": "newVendingMachine",
          "type": "address"
        }
      ],
      "stateMutability": "nonpayable",
      "type": "function"
    },
    {
      "inputs": [
        {
          "internalType": "address",
          "name": "baseToken",
          "type": "address"
        },
        {
          "internalType": "address",
          "name": "quoteToken",
          "type": "address"
        }
      ],
      "name": "getPairPool",
      "outputs": [
        {
          "internalType": "address[]",
          "name": "machines",
          "type": "address[]"
        }
      ],
      "stateMutability": "view",
      "type": "function"
    },
    {
      "inputs": [
        {
          "internalType": "address",
          "name": "token0",
          "type": "address"
        },
        {
          "internalType": "address",
          "name": "token1",
          "type": "address"
        }
      ],
      "name": "getPairPoolBidirection",
      "outputs": [
        {
          "internalType": "address[]",
          "name": "baseToken0Machines",
          "type": "address[]"
        },
        {
          "internalType": "address[]",
          "name": "baseToken1Machines",
          "type": "address[]"
        }
      ],
      "stateMutability": "view",
      "type": "function"
    },
    {
      "inputs": [
        {
          "internalType": "address",
          "name": "user",
          "type": "address"
        }
      ],
      "name": "getPairPoolByUser",
      "outputs": [
        {
          "internalType": "address[]",
          "name": "machines",
          "type": "address[]"
        }
      ],
      "stateMutability": "view",
      "type": "function"
    },
    {
      "inputs": [
        {
          "internalType": "address",
          "name": "newOwner",
          "type": "address"
        }
      ],
      "name": "initOwner",
      "outputs": [],
      "stateMutability": "nonpayable",
      "type": "function"
    },
    {
      "inputs": [
        {
          "internalType": "address",
          "name": "creator",
          "type": "address"
        },
        {
          "internalType": "address",
          "name": "baseToken",
          "type": "address"
        },
        {
          "internalType": "address",
          "name": "quoteToken",
          "type": "address"
        },
        {
          "internalType": "address",
          "name": "pool",
          "type": "address"
        }
      ],
      "name": "removePoolByAdmin",
      "outputs": [],
      "stateMutability": "nonpayable",
      "type": "function"
    },
    {
      "inputs": [
        {
          "internalType": "address",
          "name": "newOwner",
          "type": "address"
        }
      ],
      "name": "transferOwnership",
      "outputs": [],
      "stateMutability": "nonpayable",
      "type": "function"
    },
    {
      "inputs": [
        {
          "internalType": "address",
          "name": "_newMaintainer",
          "type": "address"
        }
      ],
      "name": "updateDefaultMaintainer",
      "outputs": [],
      "stateMutability": "nonpayable",
      "type": "function"
    },
    {
      "inputs": [
        {
          "internalType": "address",
          "name": "_newDVMTemplate",
          "type": "address"
        }
      ],
      "name": "updateDvmTemplate",
      "outputs": [],
      "stateMutability": "nonpayable",
      "type": "function"
    }
  ],
  "transactionHash": "0x67e0a027a03568e91a4e507429bf10168cc4dff1711425662a0894b095f49251",
  "args": [
    "0xb3EABd3233FF3517F213b5755838a646f029976f",
    "0x06ac33A2F7DE3f5C1D5DD150B34644AF97D2d334",
    "0xd7B80c111500CB2f36077F9F69a4eC5bF16Ca947",
    "0x13C5Ce56499787d6e44e2b63A15264C4eB5d75dF"
  ],
  "numDeployments": 1,
  "solcInputHash": "2bc52c20de8a37fa339f3a7b69b4b897",
  "bytecode": "0x60c06040523480156200001157600080fd5b50604051620012d6380380620012d68339810160408190526200003491620000a1565b6001600160601b0319606094851b8116608052600380546001600160a01b039586166001600160a01b0319918216179091556002805494909516931692909217909255911b1660a05262000101565b80516001600160a01b03811681146200009b57600080fd5b92915050565b60008060008060808587031215620000b7578384fd5b620000c3868662000083565b9350620000d4866020870162000083565b9250620000e5866040870162000083565b9150620000f6866060870162000083565b905092959194509250565b60805160601c60a05160601c6111a162000135600039806107bd5280610c08525080610b0e5280610b4d52506111a16000f3fe608060405234801561001057600080fd5b50600436106101215760003560e01c80639e988ee3116100ad578063ccf0c05911610071578063ccf0c0591461022c578063d99b8ad414610234578063eb774d0514610247578063ee3d9ef01461024f578063f2fde38b1461026257610121565b80639e988ee3146101bf5780639f1f8ed3146101d2578063a58888db146101e5578063a6df50ae146101f8578063bdeb0a911461021957610121565b80634e71e0c8116100f45780634e71e0c81461017f5780636c5ccb9b1461018757806381ab4d0a1461018f5780638456db15146101975780638c76be351461019f57610121565b80630d0092971461012657806316048bc41461013b57806339d00ef91461015957806343274b821461016c575b600080fd5b610139610134366004610e2e565b610275565b005b6101436102de565b6040516101509190611018565b60405180910390f35b610139610167366004610ea5565b6102ed565b61013961017a366004610ea5565b6103ca565b61013961072d565b6101436107bb565b6101436107df565b6101436107ee565b6101b26101ad366004610e2e565b6107fd565b60405161015091906110a2565b6101396101cd366004610e2e565b610873565b6101b26101e0366004610e6d565b6108bf565b6101436101f3366004610faa565b610942565b61020b610206366004610e6d565b610977565b6040516101509291906110b5565b610143610227366004610f00565b610a6f565b610143610ab1565b610139610242366004610e2e565b610ac0565b610143610b0c565b61014361025d366004610f40565b610b30565b610139610270366004610e2e565b610d1d565b600154600160a01b900460ff16156102a85760405162461bcd60e51b815260040161029f9061110a565b60405180910390fd5b6001805460ff60a01b1916600160a01b179055600080546001600160a01b039092166001600160a01b0319909216919091179055565b6000546001600160a01b031681565b6000546001600160a01b031633146103175760405162461bcd60e51b815260040161029f90611130565b6001600160a01b038084166000908152600460209081526040808320868516845282528083208054600181810183559185528385200180548787166001600160a01b03199182168117909255958a1685526005845282852080549283018155855292909320909201805490931617909155517faf5c5f12a80fc937520df6fcaed66262a4cc775e0f3fceaf7a7cfe476d9a751d906103bc90859085908890869061102c565b60405180910390a150505050565b6000546001600160a01b031633146103f45760405162461bcd60e51b815260040161029f90611130565b6001600160a01b03808416600090815260046020908152604080832093861683529281529082902080548351818402810184019094528084526060939283018282801561046a57602002820191906000526020600020905b81546001600160a01b0316815260019091019060200180831161044c575b50939450600093505050505b81518110156104fd57826001600160a01b031682828151811061049557fe5b60200260200101516001600160a01b031614156104f557816001835103815181106104bc57fe5b60200260200101518282815181106104d057fe5b60200260200101906001600160a01b031690816001600160a01b0316815250506104fd565b600101610476565b506001600160a01b0380851660009081526004602090815260408083209387168352928152919020825161053392840190610da2565b506001600160a01b03808516600090815260046020908152604080832093871683529290522080548061056257fe5b60008281526020808220830160001990810180546001600160a01b03191690559092019092556001600160a01b0387168252600581526040918290208054835181840281018401909452808452606093928301828280156105ec57602002820191906000526020600020905b81546001600160a01b031681526001909101906020018083116105ce575b50939450600093505050505b815181101561067f57836001600160a01b031682828151811061061757fe5b60200260200101516001600160a01b03161415610677578160018351038151811061063e57fe5b602002602001015182828151811061065257fe5b60200260200101906001600160a01b031690816001600160a01b03168152505061067f565b6001016105f8565b506001600160a01b038616600090815260056020908152604090912082516106a992840190610da2565b506001600160a01b03861660009081526005602052604090208054806106cb57fe5b600082815260209020810160001990810180546001600160a01b03191690550190556040517f63971a172c674ce2e9da5e027e9e81a54fd3aa74a2c246a2eb473dc0aa7f5cdd9061071d908590611018565b60405180910390a1505050505050565b6001546001600160a01b031633146107575760405162461bcd60e51b815260040161029f906110e3565b600154600080546040516001600160a01b0393841693909116917f8be0079c531659141344cd1fd0a4f28419497f9722a3daafe3b4186f6b6457e091a360018054600080546001600160a01b03199081166001600160a01b03841617909155169055565b7f000000000000000000000000000000000000000000000000000000000000000081565b6002546001600160a01b031681565b6001546001600160a01b031681565b6001600160a01b03811660009081526005602090815260409182902080548351818402810184019094528084526060939283018282801561086757602002820191906000526020600020905b81546001600160a01b03168152600190910190602001808311610849575b50505050509050919050565b6000546001600160a01b0316331461089d5760405162461bcd60e51b815260040161029f90611130565b600280546001600160a01b0319166001600160a01b0392909216919091179055565b6001600160a01b03808316600090815260046020908152604080832093851683529281529082902080548351818402810184019094528084526060939283018282801561093557602002820191906000526020600020905b81546001600160a01b03168152600190910190602001808311610917575b5050505050905092915050565b6005602052816000526040600020818154811061095b57fe5b6000918252602090912001546001600160a01b03169150829050565b6001600160a01b0380831660008181526004602081815260408084209587168452948152848320918152848320938352928352908390208154845181850281018501909552808552606094859490918491830182828015610a0157602002820191906000526020600020905b81546001600160a01b031681526001909101906020018083116109e3575b5050505050915080805480602002602001604051908101604052809291908181526020018280548015610a5d57602002820191906000526020600020905b81546001600160a01b03168152600190910190602001808311610a3f575b50505050509050915091509250929050565b60046020528260005260406000206020528160005260406000208181548110610a9457fe5b6000918252602090912001546001600160a01b0316925083915050565b6003546001600160a01b031681565b6000546001600160a01b03163314610aea5760405162461bcd60e51b815260040161029f90611130565b600380546001600160a01b0319166001600160a01b0392909216919091179055565b7f000000000000000000000000000000000000000000000000000000000000000081565b6003546040516340925bc760e11b81526000916001600160a01b037f0000000000000000000000000000000000000000000000000000000000000000811692638124b78e92610b83921690600401611018565b602060405180830381600087803b158015610b9d57600080fd5b505af1158015610bb1573d6000803e3d6000fd5b505050506040513d601f19601f82011682018060405250810190610bd59190610e51565b60025460405163281ccb9560e11b81529192506001600160a01b0380841692635039972a92610c369216908b908b908b907f0000000000000000000000000000000000000000000000000000000000000000908c908c908c90600401611057565b600060405180830381600087803b158015610c5057600080fd5b505af1158015610c64573d6000803e3d6000fd5b5050506001600160a01b0380891660009081526004602090815260408083208b8516845282528083208054600181810183559185528385200180549588166001600160a01b03199687168117909155328086526005855283862080549384018155865293909420018054909416909217909255517faf5c5f12a80fc937520df6fcaed66262a4cc775e0f3fceaf7a7cfe476d9a751d9250610d0b918a918a9190869061102c565b60405180910390a19695505050505050565b6000546001600160a01b03163314610d475760405162461bcd60e51b815260040161029f90611130565b600080546040516001600160a01b03808516939216917fdcf55418cee3220104fef63f979ff3c4097ad240c0c43dcb33ce837748983e6291a3600180546001600160a01b0319166001600160a01b0392909216919091179055565b828054828255906000526020600020908101928215610df7579160200282015b82811115610df757825182546001600160a01b0319166001600160a01b03909116178255602090920191600190910190610dc2565b50610e03929150610e07565b5090565b610e2b91905b80821115610e035780546001600160a01b0319168155600101610e0d565b90565b600060208284031215610e3f578081fd5b8135610e4a81611153565b9392505050565b600060208284031215610e62578081fd5b8151610e4a81611153565b60008060408385031215610e7f578081fd5b8235610e8a81611153565b91506020830135610e9a81611153565b809150509250929050565b60008060008060808587031215610eba578182fd5b8435610ec581611153565b93506020850135610ed581611153565b92506040850135610ee581611153565b91506060850135610ef581611153565b939692955090935050565b600080600060608486031215610f14578283fd5b8335610f1f81611153565b92506020840135610f2f81611153565b929592945050506040919091013590565b60008060008060008060c08789031215610f58578182fd5b8635610f6381611153565b95506020870135610f7381611153565b945060408701359350606087013592506080870135915060a08701358015158114610f9c578182fd5b809150509295509295509295565b60008060408385031215610fbc578182fd5b8235610fc781611153565b946020939093013593505050565b6000815180845260208085019450808401835b8381101561100d5781516001600160a01b031687529582019590820190600101610fe8565b509495945050505050565b6001600160a01b0391909116815260200190565b6001600160a01b03948516815292841660208401529083166040830152909116606082015260800190565b6001600160a01b0398891681529688166020880152948716604087015260608601939093529416608084015260a083019390935260c082019290925290151560e08201526101000190565b600060208252610e4a6020830184610fd5565b6000604082526110c86040830185610fd5565b82810360208401526110da8185610fd5565b95945050505050565b6020808252600d908201526c494e56414c49445f434c41494d60981b604082015260600190565b6020808252600c908201526b17d25392551250531256915160a21b604082015260600190565b6020808252600990820152682727aa2fa7aba722a960b91b604082015260600190565b6001600160a01b038116811461116857600080fd5b5056fea26469706673582212202df41358cf9457a217ea486f38141b8b0a900dc5deb246d83a9d1426661b643f64736f6c63430006090033",
  "devdoc": {
    "methods": {},
    "title": "VendingMachine Factory"
  },
  "userdoc": {
    "methods": {},
    "notice": "Create And Register DVM Pools "
  },
  "storageLayout": {
    "storage": [
      {
        "astId": 2160,
        "contract": "contracts/factory/DVMFactory.sol:DVMFactory",
        "label": "_OWNER_",
        "offset": 0,
        "slot": "0",
        "type": "t_address"
      },
      {
        "astId": 2162,
        "contract": "contracts/factory/DVMFactory.sol:DVMFactory",
        "label": "_NEW_OWNER_",
        "offset": 0,
        "slot": "1",
        "type": "t_address"
      },
      {
        "astId": 2164,
        "contract": "contracts/factory/DVMFactory.sol:DVMFactory",
        "label": "_INITIALIZED_",
        "offset": 20,
        "slot": "1",
        "type": "t_bool"
      },
      {
        "astId": 442,
        "contract": "contracts/factory/DVMFactory.sol:DVMFactory",
        "label": "_DEFAULT_MAINTAINER_",
        "offset": 0,
        "slot": "2",
        "type": "t_address"
      },
      {
        "astId": 444,
        "contract": "contracts/factory/DVMFactory.sol:DVMFactory",
        "label": "_DVM_TEMPLATE_",
        "offset": 0,
        "slot": "3",
        "type": "t_address"
      },
      {
        "astId": 451,
        "contract": "contracts/factory/DVMFactory.sol:DVMFactory",
        "label": "_REGISTRY_",
        "offset": 0,
        "slot": "4",
        "type": "t_mapping(t_address,t_mapping(t_address,t_array(t_address)dyn_storage))"
      },
      {
        "astId": 456,
        "contract": "contracts/factory/DVMFactory.sol:DVMFactory",
        "label": "_USER_REGISTRY_",
        "offset": 0,
        "slot": "5",
        "type": "t_mapping(t_address,t_array(t_address)dyn_storage)"
      }
    ],
    "types": {
      "t_address": {
        "encoding": "inplace",
        "label": "address",
        "numberOfBytes": "20"
      },
      "t_array(t_address)dyn_storage": {
        "base": "t_address",
        "encoding": "dynamic_array",
        "label": "address[]",
        "numberOfBytes": "32"
      },
      "t_bool": {
        "encoding": "inplace",
        "label": "bool",
        "numberOfBytes": "1"
      },
      "t_mapping(t_address,t_array(t_address)dyn_storage)": {
        "encoding": "mapping",
        "key": "t_address",
        "label": "mapping(address => address[])",
        "numberOfBytes": "32",
        "value": "t_array(t_address)dyn_storage"
      },
      "t_mapping(t_address,t_mapping(t_address,t_array(t_address)dyn_storage))": {
        "encoding": "mapping",
        "key": "t_address",
        "label": "mapping(address => mapping(address => address[]))",
        "numberOfBytes": "32",
        "value": "t_mapping(t_address,t_array(t_address)dyn_storage)"
      }
    }
  }
}