{
  "address": "0x9D6eC1Bba7C29F8fbb2883cd70F374d90c0F0136",
  "abi": [
    {
      "inputs": [
        {
          "internalType": "address",
          "name": "owner",
          "type": "address"
        },
        {
          "internalType": "bool",
          "name": "permissioned",
          "type": "bool"
        }
      ],
      "stateMutability": "nonpayable",
      "type": "constructor"
    },
    {
      "anonymous": false,
      "inputs": [
        {
          "indexed": true,
          "internalType": "address",
          "name": "previousOwner",
          "type": "address"
        },
        {
          "indexed": true,
          "internalType": "address",
          "name": "newOwner",
          "type": "address"
        }
      ],
      "name": "OwnershipTransferred",
      "type": "event"
    },
    {
      "inputs": [],
      "name": "MAX_MINT_AMOUNT",
      "outputs": [
        {
          "internalType": "uint256",
          "name": "",
          "type": "uint256"
        }
      ],
      "stateMutability": "view",
      "type": "function"
    },
    {
      "inputs": [
        {
          "internalType": "address",
          "name": "asset",
          "type": "address"
        }
      ],
      "name": "isMintable",
      "outputs": [
        {
          "internalType": "bool",
          "name": "",
          "type": "bool"
        }
      ],
      "stateMutability": "view",
      "type": "function"
    },
    {
      "inputs": [],
      "name": "isPermissioned",
      "outputs": [
        {
          "internalType": "bool",
          "name": "",
          "type": "bool"
        }
      ],
      "stateMutability": "view",
      "type": "function"
    },
    {
      "inputs": [
        {
          "internalType": "address",
          "name": "token",
          "type": "address"
        },
        {
          "internalType": "address",
          "name": "to",
          "type": "address"
        },
        {
          "internalType": "uint256",
          "name": "amount",
          "type": "uint256"
        }
      ],
      "name": "mint",
      "outputs": [
        {
          "internalType": "uint256",
          "name": "",
          "type": "uint256"
        }
      ],
      "stateMutability": "nonpayable",
      "type": "function"
    },
    {
      "inputs": [],
      "name": "owner",
      "outputs": [
        {
          "internalType": "address",
          "name": "",
          "type": "address"
        }
      ],
      "stateMutability": "view",
      "type": "function"
    },
    {
      "inputs": [],
      "name": "renounceOwnership",
      "outputs": [],
      "stateMutability": "nonpayable",
      "type": "function"
    },
    {
      "inputs": [
        {
          "internalType": "address",
          "name": "asset",
          "type": "address"
        },
        {
          "internalType": "bool",
          "name": "active",
          "type": "bool"
        }
      ],
      "name": "setMintable",
      "outputs": [],
      "stateMutability": "nonpayable",
      "type": "function"
    },
    {
      "inputs": [
        {
          "internalType": "bool",
          "name": "permissioned",
          "type": "bool"
        }
      ],
      "name": "setPermissioned",
      "outputs": [],
      "stateMutability": "nonpayable",
      "type": "function"
    },
    {
      "inputs": [
        {
          "internalType": "address",
          "name": "newOwner",
          "type": "address"
        }
      ],
      "name": "transferOwnership",
      "outputs": [],
      "stateMutability": "nonpayable",
      "type": "function"
    },
    {
      "inputs": [
        {
          "internalType": "address[]",
          "name": "childContracts",
          "type": "address[]"
        },
        {
          "internalType": "address",
          "name": "newOwner",
          "type": "address"
        }
      ],
      "name": "transferOwnershipOfChild",
      "outputs": [],
      "stateMutability": "nonpayable",
      "type": "function"
    }
  ],
  "transactionHash": "0x62e27dc1fd8b81f61e58701ab6ccbd7632b0cffa02a7d15ec1d90dca9465f914",
  "args": [
    "0xd7B80c111500CB2f36077F9F69a4eC5bF16Ca947",
    false
  ],
  "numDeployments": 1,
  "solcInputHash": "ee986300d64c84877be0eb35ea96b150",
  "bytecode": "0x608060405234801561001057600080fd5b50604051610bc4380380610bc483398101604081905261002f9161019e565b600080546001600160a01b03191633908117825560405190918291600080516020610ba4833981519152908290a3506001600160a01b03821661007157600080fd5b61007a82610091565b6002805460ff1916911515919091179055506101e9565b6000546001600160a01b031633146100f05760405162461bcd60e51b815260206004820181905260248201527f4f776e61626c653a2063616c6c6572206973206e6f7420746865206f776e657260448201526064015b60405180910390fd5b6001600160a01b0381166101555760405162461bcd60e51b815260206004820152602660248201527f4f776e61626c653a206e6577206f776e657220697320746865207a65726f206160448201526564647265737360d01b60648201526084016100e7565b600080546040516001600160a01b0380851693921691600080516020610ba483398151915291a3600080546001600160a01b0319166001600160a01b0392909216919091179055565b600080604083850312156101b157600080fd5b82516001600160a01b03811681146101c857600080fd5b602084015190925080151581146101de57600080fd5b809150509250929050565b6109ac806101f86000396000f3fe608060405234801561001057600080fd5b506004361061009e5760003560e01c8063c6c3bbe611610066578063c6c3bbe614610130578063e2a4157c14610151578063f2fde38b1461015c578063f7eb06c41461016f578063fa9b70181461018257600080fd5b80631a678cd3146100a3578063222b15fb146100b8578063506f26cc146100fa578063715018a61461010d5780638da5cb5b14610115575b600080fd5b6100b66100b1366004610654565b61018b565b005b6100e56100c6366004610694565b6001600160a01b031660009081526001602052604090205460ff161590565b60405190151581526020015b60405180910390f35b6100b66101083660046106af565b6101d1565b6100b66102a3565b6000546040516001600160a01b0390911681526020016100f1565b61014361013e366004610733565b610317565b6040519081526020016100f1565b60025460ff166100e5565b6100b661016a366004610694565b610506565b6100b661017d36600461076f565b6105f0565b61014361271081565b6000546001600160a01b031633146101be5760405162461bcd60e51b81526004016101b5906107a6565b60405180910390fd5b6002805460ff1916911515919091179055565b6000546001600160a01b031633146101fb5760405162461bcd60e51b81526004016101b5906107a6565b60005b8281101561029d57838382818110610218576102186107db565b905060200201602081019061022d9190610694565b60405163f2fde38b60e01b81526001600160a01b038481166004830152919091169063f2fde38b90602401600060405180830381600087803b15801561027257600080fd5b505af1158015610286573d6000803e3d6000fd5b50505050808061029590610807565b9150506101fe565b50505050565b6000546001600160a01b031633146102cd5760405162461bcd60e51b81526004016101b5906107a6565b600080546040516001600160a01b03909116907f8be0079c531659141344cd1fd0a4f28419497f9722a3daafe3b4186f6b6457e0908390a3600080546001600160a01b0319169055565b60025460009060ff16151560011415610354576000546001600160a01b031633146103545760405162461bcd60e51b81526004016101b5906107a6565b6001600160a01b03841660009081526001602052604090205460ff16156103b35760405162461bcd60e51b81526020600482015260136024820152724572726f723a206e6f74206d696e7461626c6560681b60448201526064016101b5565b836001600160a01b031663313ce5676040518163ffffffff1660e01b8152600401602060405180830381865afa1580156103f1573d6000803e3d6000fd5b505050506040513d601f19601f820116820180604052508101906104159190610822565b61042090600a61092b565b61042c9061271061093a565b82111561048a5760405162461bcd60e51b815260206004820152602660248201527f4572726f723a204d696e74206c696d6974207472616e73616374696f6e20657860448201526518d95959195960d21b60648201526084016101b5565b6040516340c10f1960e01b81526001600160a01b038481166004830152602482018490528516906340c10f19906044016020604051808303816000875af11580156104d9573d6000803e3d6000fd5b505050506040513d601f19601f820116820180604052508101906104fd9190610959565b50909392505050565b6000546001600160a01b031633146105305760405162461bcd60e51b81526004016101b5906107a6565b6001600160a01b0381166105955760405162461bcd60e51b815260206004820152602660248201527f4f776e61626c653a206e6577206f776e657220697320746865207a65726f206160448201526564647265737360d01b60648201526084016101b5565b600080546040516001600160a01b03808516939216917f8be0079c531659141344cd1fd0a4f28419497f9722a3daafe3b4186f6b6457e091a3600080546001600160a01b0319166001600160a01b0392909216919091179055565b6000546001600160a01b0316331461061a5760405162461bcd60e51b81526004016101b5906107a6565b6001600160a01b039091166000908152600160205260409020805460ff19169115919091179055565b801515811461065157600080fd5b50565b60006020828403121561066657600080fd5b813561067181610643565b9392505050565b80356001600160a01b038116811461068f57600080fd5b919050565b6000602082840312156106a657600080fd5b61067182610678565b6000806000604084860312156106c457600080fd5b833567ffffffffffffffff808211156106dc57600080fd5b818601915086601f8301126106f057600080fd5b8135818111156106ff57600080fd5b8760208260051b850101111561071457600080fd5b60209283019550935061072a9186019050610678565b90509250925092565b60008060006060848603121561074857600080fd5b61075184610678565b925061075f60208501610678565b9150604084013590509250925092565b6000806040838503121561078257600080fd5b61078b83610678565b9150602083013561079b81610643565b809150509250929050565b6020808252818101527f4f776e61626c653a2063616c6c6572206973206e6f7420746865206f776e6572604082015260600190565b634e487b7160e01b600052603260045260246000fd5b634e487b7160e01b600052601160045260246000fd5b600060001982141561081b5761081b6107f1565b5060010190565b60006020828403121561083457600080fd5b815160ff8116811461067157600080fd5b600181815b80851115610880578160001904821115610866576108666107f1565b8085161561087357918102915b93841c939080029061084a565b509250929050565b60008261089757506001610925565b816108a457506000610925565b81600181146108ba57600281146108c4576108e0565b6001915050610925565b60ff8411156108d5576108d56107f1565b50506001821b610925565b5060208310610133831016604e8410600b8410161715610903575081810a610925565b61090d8383610845565b8060001904821115610921576109216107f1565b0290505b92915050565b600061067160ff841683610888565b6000816000190483118215151615610954576109546107f1565b500290565b60006020828403121561096b57600080fd5b81516106718161064356fea26469706673582212209b653fd6752593a195284d06ce1f855029deb457e4b5b21f591272057d48f5e664736f6c634300080a00338be0079c531659141344cd1fd0a4f28419497f9722a3daafe3b4186f6b6457e0",
  "devdoc": {
    "details": "Ownable Faucet Contract",
    "kind": "dev",
    "methods": {
      "isMintable(address)": {
        "params": {
          "asset": "The address of the asset"
        },
        "returns": {
          "_0": "True if the asset is mintable, false otherwise"
        }
      },
      "isPermissioned()": {
        "returns": {
          "_0": "Returns a boolean, if true the mode is enabled, if false is disabled"
        }
      },
      "mint(address,address,uint256)": {
        "params": {
          "amount": "The amount of tokens to mint",
          "to": "The address to send the minted tokens",
          "token": "The address of the token to perform the mint"
        },
        "returns": {
          "_0": "The amount minted*"
        }
      },
      "owner()": {
        "details": "Returns the address of the current owner."
      },
      "renounceOwnership()": {
        "details": "Leaves the contract without owner. It will not be possible to call `onlyOwner` functions anymore. Can only be called by the current owner. NOTE: Renouncing ownership will leave the contract without an owner, thereby removing any functionality that is only available to the owner."
      },
      "setMintable(address,bool)": {
        "params": {
          "active": "True to enable, false to disable",
          "asset": "The address of the asset"
        }
      },
      "setPermissioned(bool)": {
        "params": {
          "value": "If true, ask for authentication at `mint` function, if false, disable the authentication"
        }
      },
      "transferOwnership(address)": {
        "details": "Transfers ownership of the contract to a new account (`newOwner`). Can only be called by the current owner."
      },
      "transferOwnershipOfChild(address[],address)": {
        "params": {
          "childContracts": "A list of child contract addresses",
          "newOwner": "The address of the new owner"
        }
      }
    },
    "stateVariables": {
      "MAX_MINT_AMOUNT": {
        "return": "The maximum amount of tokens per mint allowed",
        "returns": {
          "_0": "The maximum amount of tokens per mint allowed"
        }
      }
    },
    "title": "Faucet",
    "version": 1
  },
  "userdoc": {
    "kind": "user",
    "methods": {
      "MAX_MINT_AMOUNT()": {
        "notice": "Returns the maximum amount of tokens per mint allowed"
      },
      "isMintable(address)": {
        "notice": "Returns whether the asset is mintable"
      },
      "isPermissioned()": {
        "notice": "Getter to determine if permissioned mode is enabled or disabled"
      },
      "mint(address,address,uint256)": {
        "notice": "Function to mint Testnet tokens to the destination address"
      },
      "setMintable(address,bool)": {
        "notice": "Enable or disable the minting of the faucet asset"
      },
      "setPermissioned(bool)": {
        "notice": "Enable or disable the need of authentication to call `mint` function"
      },
      "transferOwnershipOfChild(address[],address)": {
        "notice": "Transfer the ownership of child contracts"
      }
    },
    "version": 1
  },
  "storageLayout": {
    "storage": [
      {
        "astId": 1889,
        "contract": "contracts/mock/Faucet.sol:Faucet",
        "label": "_owner",
        "offset": 0,
        "slot": "0",
        "type": "t_address"
      },
      {
        "astId": 20,
        "contract": "contracts/mock/Faucet.sol:Faucet",
        "label": "_nonMintable",
        "offset": 0,
        "slot": "1",
        "type": "t_mapping(t_address,t_bool)"
      },
      {
        "astId": 22,
        "contract": "contracts/mock/Faucet.sol:Faucet",
        "label": "_permissioned",
        "offset": 0,
        "slot": "2",
        "type": "t_bool"
      }
    ],
    "types": {
      "t_address": {
        "encoding": "inplace",
        "label": "address",
        "numberOfBytes": "20"
      },
      "t_bool": {
        "encoding": "inplace",
        "label": "bool",
        "numberOfBytes": "1"
      },
      "t_mapping(t_address,t_bool)": {
        "encoding": "mapping",
        "key": "t_address",
        "label": "mapping(address => bool)",
        "numberOfBytes": "32",
        "value": "t_bool"
      }
    }
  }
}